{
  "_format": "hh-sol-artifact-1",
  "contractName": "WhitelistPaymaster",
  "sourceName": "contracts/gsn/WhitelistPaymaster.sol",
  "abi": [
    {
      "inputs": [],
      "stateMutability": "nonpayable",
      "type": "constructor"
    },
    {
      "anonymous": false,
      "inputs": [
        {
          "indexed": false,
          "internalType": "address",
          "name": "from",
          "type": "address"
        },
        {
          "indexed": false,
          "internalType": "uint256",
          "name": "amount",
          "type": "uint256"
        }
      ],
      "name": "ReceivedETH",
      "type": "event"
    },
    {
      "anonymous": false,
      "inputs": [
        {
          "indexed": false,
          "internalType": "address",
          "name": "target",
          "type": "address"
        }
      ],
      "name": "TargetAccepted",
      "type": "event"
    },
    {
      "anonymous": false,
      "inputs": [
        {
          "indexed": false,
          "internalType": "address",
          "name": "user",
          "type": "address"
        }
      ],
      "name": "UserWhitelisted",
      "type": "event"
    },
    {
      "inputs": [
        {
          "internalType": "address",
          "name": "",
          "type": "address"
        }
      ],
      "name": "acceptedTargets",
      "outputs": [
        {
          "internalType": "bool",
          "name": "",
          "type": "bool"
        }
      ],
      "stateMutability": "view",
      "type": "function"
    },
    {
      "inputs": [],
      "name": "getBalance",
      "outputs": [
        {
          "internalType": "uint256",
          "name": "",
          "type": "uint256"
        }
      ],
      "stateMutability": "view",
      "type": "function"
    },
    {
      "inputs": [],
      "name": "owner",
      "outputs": [
        {
          "internalType": "address",
          "name": "",
          "type": "address"
        }
      ],
      "stateMutability": "view",
      "type": "function"
    },
    {
      "inputs": [
        {
          "internalType": "bytes",
          "name": "",
          "type": "bytes"
        },
        {
          "internalType": "bool",
          "name": "",
          "type": "bool"
        },
        {
          "internalType": "uint256",
          "name": "",
          "type": "uint256"
        },
        {
          "internalType": "uint256",
          "name": "",
          "type": "uint256"
        }
      ],
      "name": "postRelayedCall",
      "outputs": [],
      "stateMutability": "nonpayable",
      "type": "function"
    },
    {
      "inputs": [
        {
          "internalType": "bytes",
          "name": "",
          "type": "bytes"
        }
      ],
      "name": "preRelayedCall",
      "outputs": [
        {
          "internalType": "bytes",
          "name": "",
          "type": "bytes"
        }
      ],
      "stateMutability": "pure",
      "type": "function"
    },
    {
      "inputs": [
        {
          "internalType": "address",
          "name": "user",
          "type": "address"
        }
      ],
      "name": "removeUser",
      "outputs": [],
      "stateMutability": "nonpayable",
      "type": "function"
    },
    {
      "inputs": [
        {
          "internalType": "address",
          "name": "target",
          "type": "address"
        },
        {
          "internalType": "bool",
          "name": "accept",
          "type": "bool"
        }
      ],
      "name": "setTarget",
      "outputs": [],
      "stateMutability": "nonpayable",
      "type": "function"
    },
    {
      "inputs": [
        {
          "internalType": "address",
          "name": "",
          "type": "address"
        }
      ],
      "name": "whitelist",
      "outputs": [
        {
          "internalType": "bool",
          "name": "",
          "type": "bool"
        }
      ],
      "stateMutability": "view",
      "type": "function"
    },
    {
      "inputs": [
        {
          "internalType": "address",
          "name": "user",
          "type": "address"
        }
      ],
      "name": "whitelistUser",
      "outputs": [],
      "stateMutability": "nonpayable",
      "type": "function"
    },
    {
      "inputs": [
        {
          "internalType": "uint256",
          "name": "amount",
          "type": "uint256"
        }
      ],
      "name": "withdraw",
      "outputs": [],
      "stateMutability": "nonpayable",
      "type": "function"
    },
    {
      "stateMutability": "payable",
      "type": "receive"
    }
  ],
  "bytecode": "0x608060405234801561001057600080fd5b50600080546001600160a01b0319163390811782558152600160208190526040909120805460ff191690911790556106c38061004d6000396000f3fe6080604052600436106100955760003560e01c806380ffe77f1161005957806380ffe77f146101b65780638da5cb5b146101d65780638dbaf36e1461020e578063985751881461022f5780639b19251a1461024f57600080fd5b80631125f2a3146100d957806312065fe01461011e5780632e1a7d4d146101395780634a4c560d1461015b57806380274db71461017b57600080fd5b366100d457604080513381523460208201527f4103257eaac983ca79a70d28f90dfc4fa16b619bb0c17ee7cab0d4034c279624910160405180910390a1005b600080fd5b3480156100e557600080fd5b506101096100f4366004610461565b60026020526000908152604090205460ff1681565b60405190151581526020015b60405180910390f35b34801561012a57600080fd5b50604051478152602001610115565b34801561014557600080fd5b50610159610154366004610483565b61027f565b005b34801561016757600080fd5b50610159610176366004610461565b6102ef565b34801561018757600080fd5b506101a961019636600461053f565b5060408051602081019091526000815290565b604051610115919061057c565b3480156101c257600080fd5b506101596101d13660046105da565b610374565b3480156101e257600080fd5b506000546101f6906001600160a01b031681565b6040516001600160a01b039091168152602001610115565b34801561021a57600080fd5b5061015961022936600461060d565b50505050565b34801561023b57600080fd5b5061015961024a366004610461565b6103fa565b34801561025b57600080fd5b5061010961026a366004610461565b60016020526000908152604090205460ff1681565b6000546001600160a01b031633146102b25760405162461bcd60e51b81526004016102a99061066a565b60405180910390fd5b600080546040516001600160a01b039091169183156108fc02918491818181858888f193505050501580156102eb573d6000803e3d6000fd5b5050565b6000546001600160a01b031633146103195760405162461bcd60e51b81526004016102a99061066a565b6001600160a01b038116600081815260016020818152604092839020805460ff191690921790915590519182527f7409cb8e690bcd1487fd4fd27dad3fa92388d201ba6f953631d6d6b26299f849910160405180910390a150565b6000546001600160a01b0316331461039e5760405162461bcd60e51b81526004016102a99061066a565b6001600160a01b038216600081815260026020908152604091829020805460ff191685151517905590519182527febfa70b13b24698417038cdecc398039523b5b7464e36a15b099e1967f89dea6910160405180910390a15050565b6000546001600160a01b031633146104245760405162461bcd60e51b81526004016102a99061066a565b6001600160a01b03166000908152600160205260409020805460ff19169055565b80356001600160a01b038116811461045c57600080fd5b919050565b60006020828403121561047357600080fd5b61047c82610445565b9392505050565b60006020828403121561049557600080fd5b5035919050565b634e487b7160e01b600052604160045260246000fd5b600082601f8301126104c357600080fd5b813567ffffffffffffffff808211156104de576104de61049c565b604051601f8301601f19908116603f011681019082821181831017156105065761050661049c565b8160405283815286602085880101111561051f57600080fd5b836020870160208301376000602085830101528094505050505092915050565b60006020828403121561055157600080fd5b813567ffffffffffffffff81111561056857600080fd5b610574848285016104b2565b949350505050565b600060208083528351808285015260005b818110156105a95785810183015185820160400152820161058d565b506000604082860101526040601f19601f8301168501019250505092915050565b8035801515811461045c57600080fd5b600080604083850312156105ed57600080fd5b6105f683610445565b9150610604602084016105ca565b90509250929050565b6000806000806080858703121561062357600080fd5b843567ffffffffffffffff81111561063a57600080fd5b610646878288016104b2565b945050610655602086016105ca565b93969395505050506040820135916060013590565b6020808252600990820152682737ba1037bbb732b960b91b60408201526060019056fea264697066735822122017ac07dcde0a75e1f901fc3207ca055ecc74183aeb92e71dc7a576d1b4b33f0d64736f6c63430008140033",
  "linkReferences": {},
  "deployedLinkReferences": {}
}