{"contracts/IdentityRegistry.sol":{"IdentityRegistry":{"abi":[{"anonymous":false,"inputs":[{"indexed":true,"internalType":"address","name":"owner","type":"address"},{"indexed":true,"internalType":"bytes32","name":"claimId","type":"bytes32"}],"name":"ClaimRemoved","type":"event"},{"anonymous":false,"inputs":[{"indexed":true,"internalType":"address","name":"owner","type":"address"},{"indexed":true,"internalType":"bytes32","name":"claimId","type":"bytes32"},{"indexed":false,"internalType":"bytes32","name":"claimHash","type":"bytes32"}],"name":"ClaimSet","type":"event"},{"anonymous":false,"inputs":[{"indexed":true,"internalType":"address","name":"owner","type":"address"},{"indexed":false,"internalType":"string","name":"cid","type":"string"}],"name":"ProfileSet","type":"event"},{"inputs":[{"internalType":"address","name":"owner","type":"address"},{"internalType":"bytes32","name":"claimId","type":"bytes32"}],"name":"getClaim","outputs":[{"internalType":"bytes32","name":"","type":"bytes32"}],"stateMutability":"view","type":"function"},{"inputs":[{"internalType":"address","name":"owner","type":"address"}],"name":"getProfileCID","outputs":[{"internalType":"string","name":"","type":"string"}],"stateMutability":"view","type":"function"},{"inputs":[{"internalType":"string","name":"cid","type":"string"}],"name":"registerIdentity","outputs":[],"stateMutability":"nonpayable","type":"function"},{"inputs":[{"internalType":"address","name":"owner","type":"address"},{"internalType":"bytes32","name":"claimId","type":"bytes32"}],"name":"removeClaim","outputs":[],"stateMutability":"nonpayable","type":"function"},{"inputs":[{"internalType":"address","name":"owner","type":"address"},{"internalType":"bytes32","name":"claimId","type":"bytes32"},{"internalType":"bytes32","name":"claimHash","type":"bytes32"}],"name":"setClaim","outputs":[],"stateMutability":"nonpayable","type":"function"},{"inputs":[{"internalType":"address","name":"owner","type":"address"},{"internalType":"string","name":"cid","type":"string"}],"name":"setProfileCID","outputs":[],"stateMutability":"nonpayable","type":"function"}],"evm":{"bytecode":{"linkReferences":{},"object":"608060405234801561001057600080fd5b5061078b806100206000396000f3fe608060405234801561001057600080fd5b50600436106100625760003560e01c80634361443f1461006757806346a59e5f146100b057806392849ca4146100c55780639918925d146100d8578063a1c8ca7e146100eb578063de8b05be146100fe575b600080fd5b61009d6100753660046103ec565b6001600160a01b03919091166000908152600160209081526040808320938352929052205490565b6040519081526020015b60405180910390f35b6100c36100be36600461045f565b61011e565b005b6100c36100d33660046104b2565b6101bd565b6100c36100e63660046104f4565b61021f565b6100c36100f93660046103ec565b6102a8565b61011161010c366004610527565b610324565b6040516100a79190610549565b82336001600160a01b038216146101505760405162461bcd60e51b815260040161014790610597565b60405180910390fd5b6001600160a01b0384166000908152602081905260409020610173838583610665565b50836001600160a01b03167f56d78f91013a9df87c3059830b445edb071285effe6a7fe07fe1b235b9ae0fc384846040516101af929190610726565b60405180910390a250505050565b3360009081526020819052604090206101d7828483610665565b50336001600160a01b03167f56d78f91013a9df87c3059830b445edb071285effe6a7fe07fe1b235b9ae0fc38383604051610213929190610726565b60405180910390a25050565b82336001600160a01b038216146102485760405162461bcd60e51b815260040161014790610597565b6001600160a01b038416600081815260016020908152604080832087845282529182902085905590518481528592917f32e23ce2e82f46f421b8ffb2c7c2e2fa3db44ade2ac5f6796f52db108a887c5b910160405180910390a350505050565b81336001600160a01b038216146102d15760405162461bcd60e51b815260040161014790610597565b6001600160a01b0383166000818152600160209081526040808320868452909152808220829055518492917f82ab91eafd2c6fb1627340b0d19493f5e5df4d920fbaaf6ac40124783af8bfd491a3505050565b6001600160a01b038116600090815260208190526040902080546060919061034b906105dc565b80601f0160208091040260200160405190810160405280929190818152602001828054610377906105dc565b80156103c45780601f10610399576101008083540402835291602001916103c4565b820191906000526020600020905b8154815290600101906020018083116103a757829003601f168201915b50505050509050919050565b80356001600160a01b03811681146103e757600080fd5b919050565b600080604083850312156103ff57600080fd5b610408836103d0565b946020939093013593505050565b60008083601f84011261042857600080fd5b50813567ffffffffffffffff81111561044057600080fd5b60208301915083602082850101111561045857600080fd5b9250929050565b60008060006040848603121561047457600080fd5b61047d846103d0565b9250602084013567ffffffffffffffff81111561049957600080fd5b6104a586828701610416565b9497909650939450505050565b600080602083850312156104c557600080fd5b823567ffffffffffffffff8111156104dc57600080fd5b6104e885828601610416565b90969095509350505050565b60008060006060848603121561050957600080fd5b610512846103d0565b95602085013595506040909401359392505050565b60006020828403121561053957600080fd5b610542826103d0565b9392505050565b600060208083528351808285015260005b818110156105765785810183015185820160400152820161055a565b506000604082860101526040601f19601f8301168501019250505092915050565b6020808252601590820152742737ba103a343290383937b334b6329037bbb732b960591b604082015260600190565b634e487b7160e01b600052604160045260246000fd5b600181811c908216806105f057607f821691505b60208210810361061057634e487b7160e01b600052602260045260246000fd5b50919050565b601f82111561066057600081815260208120601f850160051c8101602086101561063d5750805b601f850160051c820191505b8181101561065c57828155600101610649565b5050505b505050565b67ffffffffffffffff83111561067d5761067d6105c6565b6106918361068b83546105dc565b83610616565b6000601f8411600181146106c557600085156106ad5750838201355b600019600387901b1c1916600186901b17835561071f565b600083815260209020601f19861690835b828110156106f657868501358255602094850194600190920191016106d6565b50868210156107135760001960f88860031b161c19848701351681555b505060018560011b0183555b5050505050565b60208152816020820152818360408301376000818301604090810191909152601f909201601f1916010191905056fea2646970667358221220756ca1b950e7c312d27b7c7a61d419e5275ad3c7ec794fac408c0df12b91b5fb64736f6c63430008140033","opcodes":"PUSH1 0x80 PUSH1 0x40 MSTORE CALLVALUE DUP1 ISZERO PUSH2 0x10 JUMPI PUSH1 0x0 DUP1 REVERT JUMPDEST POP PUSH2 0x78B DUP1 PUSH2 0x20 PUSH1 0x0 CODECOPY PUSH1 0x0 RETURN INVALID PUSH1 0x80 PUSH1 0x40 MSTORE CALLVALUE DUP1 ISZERO PUSH2 0x10 JUMPI PUSH1 0x0 DUP1 REVERT JUMPDEST POP PUSH1 0x4 CALLDATASIZE LT PUSH2 0x62 JUMPI PUSH1 0x0 CALLDATALOAD PUSH1 0xE0 SHR DUP1 PUSH4 0x4361443F EQ PUSH2 0x67 JUMPI DUP1 PUSH4 0x46A59E5F EQ PUSH2 0xB0 JUMPI DUP1 PUSH4 0x92849CA4 EQ PUSH2 0xC5 JUMPI DUP1 PUSH4 0x9918925D EQ PUSH2 0xD8 JUMPI DUP1 PUSH4 0xA1C8CA7E EQ PUSH2 0xEB JUMPI DUP1 PUSH4 0xDE8B05BE EQ PUSH2 0xFE JUMPI JUMPDEST PUSH1 0x0 DUP1 REVERT JUMPDEST PUSH2 0x9D PUSH2 0x75 CALLDATASIZE PUSH1 0x4 PUSH2 0x3EC JUMP JUMPDEST PUSH1 0x1 PUSH1 0x1 PUSH1 0xA0 SHL SUB SWAP2 SWAP1 SWAP2 AND PUSH1 0x0 SWAP1 DUP2 MSTORE PUSH1 0x1 PUSH1 0x20 SWAP1 DUP2 MSTORE PUSH1 0x40 DUP1 DUP4 KECCAK256 SWAP4 DUP4 MSTORE SWAP3 SWAP1 MSTORE KECCAK256 SLOAD SWAP1 JUMP JUMPDEST PUSH1 0x40 MLOAD SWAP1 DUP2 MSTORE PUSH1 0x20 ADD JUMPDEST PUSH1 0x40 MLOAD DUP1 SWAP2 SUB SWAP1 RETURN JUMPDEST PUSH2 0xC3 PUSH2 0xBE CALLDATASIZE PUSH1 0x4 PUSH2 0x45F JUMP JUMPDEST PUSH2 0x11E JUMP JUMPDEST STOP JUMPDEST PUSH2 0xC3 PUSH2 0xD3 CALLDATASIZE PUSH1 0x4 PUSH2 0x4B2 JUMP JUMPDEST PUSH2 0x1BD JUMP JUMPDEST PUSH2 0xC3 PUSH2 0xE6 CALLDATASIZE PUSH1 0x4 PUSH2 0x4F4 JUMP JUMPDEST PUSH2 0x21F JUMP JUMPDEST PUSH2 0xC3 PUSH2 0xF9 CALLDATASIZE PUSH1 0x4 PUSH2 0x3EC JUMP JUMPDEST PUSH2 0x2A8 JUMP JUMPDEST PUSH2 0x111 PUSH2 0x10C CALLDATASIZE PUSH1 0x4 PUSH2 0x527 JUMP JUMPDEST PUSH2 0x324 JUMP JUMPDEST PUSH1 0x40 MLOAD PUSH2 0xA7 SWAP2 SWAP1 PUSH2 0x549 JUMP JUMPDEST DUP3 CALLER PUSH1 0x1 PUSH1 0x1 PUSH1 0xA0 SHL SUB DUP3 AND EQ PUSH2 0x150 JUMPI PUSH1 0x40 MLOAD PUSH3 0x461BCD PUSH1 0xE5 SHL DUP2 MSTORE PUSH1 0x4 ADD PUSH2 0x147 SWAP1 PUSH2 0x597 JUMP JUMPDEST PUSH1 0x40 MLOAD DUP1 SWAP2 SUB SWAP1 REVERT JUMPDEST PUSH1 0x1 PUSH1 0x1 PUSH1 0xA0 SHL SUB DUP5 AND PUSH1 0x0 SWAP1 DUP2 MSTORE PUSH1 0x20 DUP2 SWAP1 MSTORE PUSH1 0x40 SWAP1 KECCAK256 PUSH2 0x173 DUP4 DUP6 DUP4 PUSH2 0x665 JUMP JUMPDEST POP DUP4 PUSH1 0x1 PUSH1 0x1 PUSH1 0xA0 SHL SUB AND PUSH32 0x56D78F91013A9DF87C3059830B445EDB071285EFFE6A7FE07FE1B235B9AE0FC3 DUP5 DUP5 PUSH1 0x40 MLOAD PUSH2 0x1AF SWAP3 SWAP2 SWAP1 PUSH2 0x726 JUMP JUMPDEST PUSH1 0x40 MLOAD DUP1 SWAP2 SUB SWAP1 LOG2 POP POP POP POP JUMP JUMPDEST CALLER PUSH1 0x0 SWAP1 DUP2 MSTORE PUSH1 0x20 DUP2 SWAP1 MSTORE PUSH1 0x40 SWAP1 KECCAK256 PUSH2 0x1D7 DUP3 DUP5 DUP4 PUSH2 0x665 JUMP JUMPDEST POP CALLER PUSH1 0x1 PUSH1 0x1 PUSH1 0xA0 SHL SUB AND PUSH32 0x56D78F91013A9DF87C3059830B445EDB071285EFFE6A7FE07FE1B235B9AE0FC3 DUP4 DUP4 PUSH1 0x40 MLOAD PUSH2 0x213 SWAP3 SWAP2 SWAP1 PUSH2 0x726 JUMP JUMPDEST PUSH1 0x40 MLOAD DUP1 SWAP2 SUB SWAP1 LOG2 POP POP JUMP JUMPDEST DUP3 CALLER PUSH1 0x1 PUSH1 0x1 PUSH1 0xA0 SHL SUB DUP3 AND EQ PUSH2 0x248 JUMPI PUSH1 0x40 MLOAD PUSH3 0x461BCD PUSH1 0xE5 SHL DUP2 MSTORE PUSH1 0x4 ADD PUSH2 0x147 SWAP1 PUSH2 0x597 JUMP JUMPDEST PUSH1 0x1 PUSH1 0x1 PUSH1 0xA0 SHL SUB DUP5 AND PUSH1 0x0 DUP2 DUP2 MSTORE PUSH1 0x1 PUSH1 0x20 SWAP1 DUP2 MSTORE PUSH1 0x40 DUP1 DUP4 KECCAK256 DUP8 DUP5 MSTORE DUP3 MSTORE SWAP2 DUP3 SWAP1 KECCAK256 DUP6 SWAP1 SSTORE SWAP1 MLOAD DUP5 DUP2 MSTORE DUP6 SWAP3 SWAP2 PUSH32 0x32E23CE2E82F46F421B8FFB2C7C2E2FA3DB44ADE2AC5F6796F52DB108A887C5B SWAP2 ADD PUSH1 0x40 MLOAD DUP1 SWAP2 SUB SWAP1 LOG3 POP POP POP POP JUMP JUMPDEST DUP2 CALLER PUSH1 0x1 PUSH1 0x1 PUSH1 0xA0 SHL SUB DUP3 AND EQ PUSH2 0x2D1 JUMPI PUSH1 0x40 MLOAD PUSH3 0x461BCD PUSH1 0xE5 SHL DUP2 MSTORE PUSH1 0x4 ADD PUSH2 0x147 SWAP1 PUSH2 0x597 JUMP JUMPDEST PUSH1 0x1 PUSH1 0x1 PUSH1 0xA0 SHL SUB DUP4 AND PUSH1 0x0 DUP2 DUP2 MSTORE PUSH1 0x1 PUSH1 0x20 SWAP1 DUP2 MSTORE PUSH1 0x40 DUP1 DUP4 KECCAK256 DUP7 DUP5 MSTORE SWAP1 SWAP2 MSTORE DUP1 DUP3 KECCAK256 DUP3 SWAP1 SSTORE MLOAD DUP5 SWAP3 SWAP2 PUSH32 0x82AB91EAFD2C6FB1627340B0D19493F5E5DF4D920FBAAF6AC40124783AF8BFD4 SWAP2 LOG3 POP POP POP JUMP JUMPDEST PUSH1 0x1 PUSH1 0x1 PUSH1 0xA0 SHL SUB DUP2 AND PUSH1 0x0 SWAP1 DUP2 MSTORE PUSH1 0x20 DUP2 SWAP1 MSTORE PUSH1 0x40 SWAP1 KECCAK256 DUP1 SLOAD PUSH1 0x60 SWAP2 SWAP1 PUSH2 0x34B SWAP1 PUSH2 0x5DC JUMP JUMPDEST DUP1 PUSH1 0x1F ADD PUSH1 0x20 DUP1 SWAP2 DIV MUL PUSH1 0x20 ADD PUSH1 0x40 MLOAD SWAP1 DUP2 ADD PUSH1 0x40 MSTORE DUP1 SWAP3 SWAP2 SWAP1 DUP2 DUP2 MSTORE PUSH1 0x20 ADD DUP3 DUP1 SLOAD PUSH2 0x377 SWAP1 PUSH2 0x5DC JUMP JUMPDEST DUP1 ISZERO PUSH2 0x3C4 JUMPI DUP1 PUSH1 0x1F LT PUSH2 0x399 JUMPI PUSH2 0x100 DUP1 DUP4 SLOAD DIV MUL DUP4 MSTORE SWAP2 PUSH1 0x20 ADD SWAP2 PUSH2 0x3C4 JUMP JUMPDEST DUP3 ADD SWAP2 SWAP1 PUSH1 0x0 MSTORE PUSH1 0x20 PUSH1 0x0 KECCAK256 SWAP1 JUMPDEST DUP2 SLOAD DUP2 MSTORE SWAP1 PUSH1 0x1 ADD SWAP1 PUSH1 0x20 ADD DUP1 DUP4 GT PUSH2 0x3A7 JUMPI DUP3 SWAP1 SUB PUSH1 0x1F AND DUP3 ADD SWAP2 JUMPDEST POP POP POP POP POP SWAP1 POP SWAP2 SWAP1 POP JUMP JUMPDEST DUP1 CALLDATALOAD PUSH1 0x1 PUSH1 0x1 PUSH1 0xA0 SHL SUB DUP2 AND DUP2 EQ PUSH2 0x3E7 JUMPI PUSH1 0x0 DUP1 REVERT JUMPDEST SWAP2 SWAP1 POP JUMP JUMPDEST PUSH1 0x0 DUP1 PUSH1 0x40 DUP4 DUP6 SUB SLT ISZERO PUSH2 0x3FF JUMPI PUSH1 0x0 DUP1 REVERT JUMPDEST PUSH2 0x408 DUP4 PUSH2 0x3D0 JUMP JUMPDEST SWAP5 PUSH1 0x20 SWAP4 SWAP1 SWAP4 ADD CALLDATALOAD SWAP4 POP POP POP JUMP JUMPDEST PUSH1 0x0 DUP1 DUP4 PUSH1 0x1F DUP5 ADD SLT PUSH2 0x428 JUMPI PUSH1 0x0 DUP1 REVERT JUMPDEST POP DUP2 CALLDATALOAD PUSH8 0xFFFFFFFFFFFFFFFF DUP2 GT ISZERO PUSH2 0x440 JUMPI PUSH1 0x0 DUP1 REVERT JUMPDEST PUSH1 0x20 DUP4 ADD SWAP2 POP DUP4 PUSH1 0x20 DUP3 DUP6 ADD ADD GT ISZERO PUSH2 0x458 JUMPI PUSH1 0x0 DUP1 REVERT JUMPDEST SWAP3 POP SWAP3 SWAP1 POP JUMP JUMPDEST PUSH1 0x0 DUP1 PUSH1 0x0 PUSH1 0x40 DUP5 DUP7 SUB SLT ISZERO PUSH2 0x474 JUMPI PUSH1 0x0 DUP1 REVERT JUMPDEST PUSH2 0x47D DUP5 PUSH2 0x3D0 JUMP JUMPDEST SWAP3 POP PUSH1 0x20 DUP5 ADD CALLDATALOAD PUSH8 0xFFFFFFFFFFFFFFFF DUP2 GT ISZERO PUSH2 0x499 JUMPI PUSH1 0x0 DUP1 REVERT JUMPDEST PUSH2 0x4A5 DUP7 DUP3 DUP8 ADD PUSH2 0x416 JUMP JUMPDEST SWAP5 SWAP8 SWAP1 SWAP7 POP SWAP4 SWAP5 POP POP POP POP JUMP JUMPDEST PUSH1 0x0 DUP1 PUSH1 0x20 DUP4 DUP6 SUB SLT ISZERO PUSH2 0x4C5 JUMPI PUSH1 0x0 DUP1 REVERT JUMPDEST DUP3 CALLDATALOAD PUSH8 0xFFFFFFFFFFFFFFFF DUP2 GT ISZERO PUSH2 0x4DC JUMPI PUSH1 0x0 DUP1 REVERT JUMPDEST PUSH2 0x4E8 DUP6 DUP3 DUP7 ADD PUSH2 0x416 JUMP JUMPDEST SWAP1 SWAP7 SWAP1 SWAP6 POP SWAP4 POP POP POP POP JUMP JUMPDEST PUSH1 0x0 DUP1 PUSH1 0x0 PUSH1 0x60 DUP5 DUP7 SUB SLT ISZERO PUSH2 0x509 JUMPI PUSH1 0x0 DUP1 REVERT JUMPDEST PUSH2 0x512 DUP5 PUSH2 0x3D0 JUMP JUMPDEST SWAP6 PUSH1 0x20 DUP6 ADD CALLDATALOAD SWAP6 POP PUSH1 0x40 SWAP1 SWAP5 ADD CALLDATALOAD SWAP4 SWAP3 POP POP POP JUMP JUMPDEST PUSH1 0x0 PUSH1 0x20 DUP3 DUP5 SUB SLT ISZERO PUSH2 0x539 JUMPI PUSH1 0x0 DUP1 REVERT JUMPDEST PUSH2 0x542 DUP3 PUSH2 0x3D0 JUMP JUMPDEST SWAP4 SWAP3 POP POP POP JUMP JUMPDEST PUSH1 0x0 PUSH1 0x20 DUP1 DUP4 MSTORE DUP4 MLOAD DUP1 DUP3 DUP6 ADD MSTORE PUSH1 0x0 JUMPDEST DUP2 DUP2 LT ISZERO PUSH2 0x576 JUMPI DUP6 DUP2 ADD DUP4 ADD MLOAD DUP6 DUP3 ADD PUSH1 0x40 ADD MSTORE DUP3 ADD PUSH2 0x55A JUMP JUMPDEST POP PUSH1 0x0 PUSH1 0x40 DUP3 DUP7 ADD ADD MSTORE PUSH1 0x40 PUSH1 0x1F NOT PUSH1 0x1F DUP4 ADD AND DUP6 ADD ADD SWAP3 POP POP POP SWAP3 SWAP2 POP POP JUMP JUMPDEST PUSH1 0x20 DUP1 DUP3 MSTORE PUSH1 0x15 SWAP1 DUP3 ADD MSTORE PUSH21 0x2737BA103A343290383937B334B6329037BBB732B9 PUSH1 0x59 SHL PUSH1 0x40 DUP3 ADD MSTORE PUSH1 0x60 ADD SWAP1 JUMP JUMPDEST PUSH4 0x4E487B71 PUSH1 0xE0 SHL PUSH1 0x0 MSTORE PUSH1 0x41 PUSH1 0x4 MSTORE PUSH1 0x24 PUSH1 0x0 REVERT JUMPDEST PUSH1 0x1 DUP2 DUP2 SHR SWAP1 DUP3 AND DUP1 PUSH2 0x5F0 JUMPI PUSH1 0x7F DUP3 AND SWAP2 POP JUMPDEST PUSH1 0x20 DUP3 LT DUP2 SUB PUSH2 0x610 JUMPI PUSH4 0x4E487B71 PUSH1 0xE0 SHL PUSH1 0x0 MSTORE PUSH1 0x22 PUSH1 0x4 MSTORE PUSH1 0x24 PUSH1 0x0 REVERT JUMPDEST POP SWAP2 SWAP1 POP JUMP JUMPDEST PUSH1 0x1F DUP3 GT ISZERO PUSH2 0x660 JUMPI PUSH1 0x0 DUP2 DUP2 MSTORE PUSH1 0x20 DUP2 KECCAK256 PUSH1 0x1F DUP6 ADD PUSH1 0x5 SHR DUP2 ADD PUSH1 0x20 DUP7 LT ISZERO PUSH2 0x63D JUMPI POP DUP1 JUMPDEST PUSH1 0x1F DUP6 ADD PUSH1 0x5 SHR DUP3 ADD SWAP2 POP JUMPDEST DUP2 DUP2 LT ISZERO PUSH2 0x65C JUMPI DUP3 DUP2 SSTORE PUSH1 0x1 ADD PUSH2 0x649 JUMP JUMPDEST POP POP POP JUMPDEST POP POP POP JUMP JUMPDEST PUSH8 0xFFFFFFFFFFFFFFFF DUP4 GT ISZERO PUSH2 0x67D JUMPI PUSH2 0x67D PUSH2 0x5C6 JUMP JUMPDEST PUSH2 0x691 DUP4 PUSH2 0x68B DUP4 SLOAD PUSH2 0x5DC JUMP JUMPDEST DUP4 PUSH2 0x616 JUMP JUMPDEST PUSH1 0x0 PUSH1 0x1F DUP5 GT PUSH1 0x1 DUP2 EQ PUSH2 0x6C5 JUMPI PUSH1 0x0 DUP6 ISZERO PUSH2 0x6AD JUMPI POP DUP4 DUP3 ADD CALLDATALOAD JUMPDEST PUSH1 0x0 NOT PUSH1 0x3 DUP8 SWAP1 SHL SHR NOT AND PUSH1 0x1 DUP7 SWAP1 SHL OR DUP4 SSTORE PUSH2 0x71F JUMP JUMPDEST PUSH1 0x0 DUP4 DUP2 MSTORE PUSH1 0x20 SWAP1 KECCAK256 PUSH1 0x1F NOT DUP7 AND SWAP1 DUP4 JUMPDEST DUP3 DUP2 LT ISZERO PUSH2 0x6F6 JUMPI DUP7 DUP6 ADD CALLDATALOAD DUP3 SSTORE PUSH1 0x20 SWAP5 DUP6 ADD SWAP5 PUSH1 0x1 SWAP1 SWAP3 ADD SWAP2 ADD PUSH2 0x6D6 JUMP JUMPDEST POP DUP7 DUP3 LT ISZERO PUSH2 0x713 JUMPI PUSH1 0x0 NOT PUSH1 0xF8 DUP9 PUSH1 0x3 SHL AND SHR NOT DUP5 DUP8 ADD CALLDATALOAD AND DUP2 SSTORE JUMPDEST POP POP PUSH1 0x1 DUP6 PUSH1 0x1 SHL ADD DUP4 SSTORE JUMPDEST POP POP POP POP POP JUMP JUMPDEST PUSH1 0x20 DUP2 MSTORE DUP2 PUSH1 0x20 DUP3 ADD MSTORE DUP2 DUP4 PUSH1 0x40 DUP4 ADD CALLDATACOPY PUSH1 0x0 DUP2 DUP4 ADD PUSH1 0x40 SWAP1 DUP2 ADD SWAP2 SWAP1 SWAP2 MSTORE PUSH1 0x1F SWAP1 SWAP3 ADD PUSH1 0x1F NOT AND ADD ADD SWAP2 SWAP1 POP JUMP INVALID LOG2 PUSH5 0x6970667358 0x22 SLT KECCAK256 PUSH22 0x6CA1B950E7C312D27B7C7A61D419E5275AD3C7EC794F 0xAC BLOCKHASH DUP13 0xD CALL 0x2B SWAP2 0xB5 0xFB PUSH5 0x736F6C6343 STOP ADDMOD EQ STOP CALLER "},"methodIdentifiers":{"getClaim(address,bytes32)":"4361443f","getProfileCID(address)":"de8b05be","registerIdentity(string)":"92849ca4","removeClaim(address,bytes32)":"a1c8ca7e","setClaim(address,bytes32,bytes32)":"9918925d","setProfileCID(address,string)":"46a59e5f"}}}}}