{
  "_format": "hh-sol-artifact-1",
  "contractName": "IdentityRegistry",
  "sourceName": "contracts/IdentityRegistry.sol",
  "abi": [
    {
      "anonymous": false,
      "inputs": [
        {
          "indexed": true,
          "internalType": "address",
          "name": "owner",
          "type": "address"
        },
        {
          "indexed": true,
          "internalType": "bytes32",
          "name": "claimId",
          "type": "bytes32"
        }
      ],
      "name": "ClaimRemoved",
      "type": "event"
    },
    {
      "anonymous": false,
      "inputs": [
        {
          "indexed": true,
          "internalType": "address",
          "name": "owner",
          "type": "address"
        },
        {
          "indexed": true,
          "internalType": "bytes32",
          "name": "claimId",
          "type": "bytes32"
        },
        {
          "indexed": false,
          "internalType": "bytes32",
          "name": "claimHash",
          "type": "bytes32"
        }
      ],
      "name": "ClaimSet",
      "type": "event"
    },
    {
      "anonymous": false,
      "inputs": [
        {
          "indexed": true,
          "internalType": "address",
          "name": "owner",
          "type": "address"
        },
        {
          "indexed": false,
          "internalType": "string",
          "name": "cid",
          "type": "string"
        }
      ],
      "name": "ProfileSet",
      "type": "event"
    },
    {
      "inputs": [
        {
          "internalType": "address",
          "name": "owner",
          "type": "address"
        },
        {
          "internalType": "bytes32",
          "name": "claimId",
          "type": "bytes32"
        }
      ],
      "name": "getClaim",
      "outputs": [
        {
          "internalType": "bytes32",
          "name": "",
          "type": "bytes32"
        }
      ],
      "stateMutability": "view",
      "type": "function"
    },
    {
      "inputs": [
        {
          "internalType": "address",
          "name": "owner",
          "type": "address"
        }
      ],
      "name": "getProfileCID",
      "outputs": [
        {
          "internalType": "string",
          "name": "",
          "type": "string"
        }
      ],
      "stateMutability": "view",
      "type": "function"
    },
    {
      "inputs": [
        {
          "internalType": "string",
          "name": "cid",
          "type": "string"
        }
      ],
      "name": "registerIdentity",
      "outputs": [],
      "stateMutability": "nonpayable",
      "type": "function"
    },
    {
      "inputs": [
        {
          "internalType": "address",
          "name": "owner",
          "type": "address"
        },
        {
          "internalType": "bytes32",
          "name": "claimId",
          "type": "bytes32"
        }
      ],
      "name": "removeClaim",
      "outputs": [],
      "stateMutability": "nonpayable",
      "type": "function"
    },
    {
      "inputs": [
        {
          "internalType": "address",
          "name": "owner",
          "type": "address"
        },
        {
          "internalType": "bytes32",
          "name": "claimId",
          "type": "bytes32"
        },
        {
          "internalType": "bytes32",
          "name": "claimHash",
          "type": "bytes32"
        }
      ],
      "name": "setClaim",
      "outputs": [],
      "stateMutability": "nonpayable",
      "type": "function"
    },
    {
      "inputs": [
        {
          "internalType": "address",
          "name": "owner",
          "type": "address"
        },
        {
          "internalType": "string",
          "name": "cid",
          "type": "string"
        }
      ],
      "name": "setProfileCID",
      "outputs": [],
      "stateMutability": "nonpayable",
      "type": "function"
    }
  ],
  "bytecode": "0x608060405234801561001057600080fd5b5061078b806100206000396000f3fe608060405234801561001057600080fd5b50600436106100625760003560e01c80634361443f1461006757806346a59e5f146100b057806392849ca4146100c55780639918925d146100d8578063a1c8ca7e146100eb578063de8b05be146100fe575b600080fd5b61009d6100753660046103ec565b6001600160a01b03919091166000908152600160209081526040808320938352929052205490565b6040519081526020015b60405180910390f35b6100c36100be36600461045f565b61011e565b005b6100c36100d33660046104b2565b6101bd565b6100c36100e63660046104f4565b61021f565b6100c36100f93660046103ec565b6102a8565b61011161010c366004610527565b610324565b6040516100a79190610549565b82336001600160a01b038216146101505760405162461bcd60e51b815260040161014790610597565b60405180910390fd5b6001600160a01b0384166000908152602081905260409020610173838583610665565b50836001600160a01b03167f56d78f91013a9df87c3059830b445edb071285effe6a7fe07fe1b235b9ae0fc384846040516101af929190610726565b60405180910390a250505050565b3360009081526020819052604090206101d7828483610665565b50336001600160a01b03167f56d78f91013a9df87c3059830b445edb071285effe6a7fe07fe1b235b9ae0fc38383604051610213929190610726565b60405180910390a25050565b82336001600160a01b038216146102485760405162461bcd60e51b815260040161014790610597565b6001600160a01b038416600081815260016020908152604080832087845282529182902085905590518481528592917f32e23ce2e82f46f421b8ffb2c7c2e2fa3db44ade2ac5f6796f52db108a887c5b910160405180910390a350505050565b81336001600160a01b038216146102d15760405162461bcd60e51b815260040161014790610597565b6001600160a01b0383166000818152600160209081526040808320868452909152808220829055518492917f82ab91eafd2c6fb1627340b0d19493f5e5df4d920fbaaf6ac40124783af8bfd491a3505050565b6001600160a01b038116600090815260208190526040902080546060919061034b906105dc565b80601f0160208091040260200160405190810160405280929190818152602001828054610377906105dc565b80156103c45780601f10610399576101008083540402835291602001916103c4565b820191906000526020600020905b8154815290600101906020018083116103a757829003601f168201915b50505050509050919050565b80356001600160a01b03811681146103e757600080fd5b919050565b600080604083850312156103ff57600080fd5b610408836103d0565b946020939093013593505050565b60008083601f84011261042857600080fd5b50813567ffffffffffffffff81111561044057600080fd5b60208301915083602082850101111561045857600080fd5b9250929050565b60008060006040848603121561047457600080fd5b61047d846103d0565b9250602084013567ffffffffffffffff81111561049957600080fd5b6104a586828701610416565b9497909650939450505050565b600080602083850312156104c557600080fd5b823567ffffffffffffffff8111156104dc57600080fd5b6104e885828601610416565b90969095509350505050565b60008060006060848603121561050957600080fd5b610512846103d0565b95602085013595506040909401359392505050565b60006020828403121561053957600080fd5b610542826103d0565b9392505050565b600060208083528351808285015260005b818110156105765785810183015185820160400152820161055a565b506000604082860101526040601f19601f8301168501019250505092915050565b6020808252601590820152742737ba103a343290383937b334b6329037bbb732b960591b604082015260600190565b634e487b7160e01b600052604160045260246000fd5b600181811c908216806105f057607f821691505b60208210810361061057634e487b7160e01b600052602260045260246000fd5b50919050565b601f82111561066057600081815260208120601f850160051c8101602086101561063d5750805b601f850160051c820191505b8181101561065c57828155600101610649565b5050505b505050565b67ffffffffffffffff83111561067d5761067d6105c6565b6106918361068b83546105dc565b83610616565b6000601f8411600181146106c557600085156106ad5750838201355b600019600387901b1c1916600186901b17835561071f565b600083815260209020601f19861690835b828110156106f657868501358255602094850194600190920191016106d6565b50868210156107135760001960f88860031b161c19848701351681555b505060018560011b0183555b5050505050565b60208152816020820152818360408301376000818301604090810191909152601f909201601f1916010191905056fea2646970667358221220756ca1b950e7c312d27b7c7a61d419e5275ad3c7ec794fac408c0df12b91b5fb64736f6c63430008140033",
  "linkReferences": {},
  "deployedLinkReferences": {}
}