{
  "_format": "hh-sol-artifact-1",
  "contractName": "IdentityRegistry",
  "sourceName": "contracts/IdentityRegistry.sol",
  "abi": [
    {
      "anonymous": false,
      "inputs": [
        {
          "indexed": true,
          "internalType": "address",
          "name": "owner",
          "type": "address"
        },
        {
          "indexed": true,
          "internalType": "bytes32",
          "name": "claimId",
          "type": "bytes32"
        }
      ],
      "name": "ClaimRemoved",
      "type": "event"
    },
    {
      "anonymous": false,
      "inputs": [
        {
          "indexed": true,
          "internalType": "address",
          "name": "owner",
          "type": "address"
        },
        {
          "indexed": true,
          "internalType": "bytes32",
          "name": "claimId",
          "type": "bytes32"
        },
        {
          "indexed": false,
          "internalType": "bytes32",
          "name": "claimHash",
          "type": "bytes32"
        }
      ],
      "name": "ClaimSet",
      "type": "event"
    },
    {
      "anonymous": false,
      "inputs": [
        {
          "indexed": true,
          "internalType": "address",
          "name": "owner",
          "type": "address"
        },
        {
          "indexed": false,
          "internalType": "string",
          "name": "cid",
          "type": "string"
        }
      ],
      "name": "ProfileSet",
      "type": "event"
    },
    {
      "inputs": [
        {
          "internalType": "address",
          "name": "owner",
          "type": "address"
        },
        {
          "internalType": "bytes32",
          "name": "claimId",
          "type": "bytes32"
        }
      ],
      "name": "getClaim",
      "outputs": [
        {
          "internalType": "bytes32",
          "name": "",
          "type": "bytes32"
        }
      ],
      "stateMutability": "view",
      "type": "function"
    },
    {
      "inputs": [
        {
          "internalType": "address",
          "name": "owner",
          "type": "address"
        }
      ],
      "name": "getProfileCID",
      "outputs": [
        {
          "internalType": "string",
          "name": "",
          "type": "string"
        }
      ],
      "stateMutability": "view",
      "type": "function"
    },
    {
      "inputs": [
        {
          "internalType": "string",
          "name": "cid",
          "type": "string"
        }
      ],
      "name": "registerIdentity",
      "outputs": [],
      "stateMutability": "nonpayable",
      "type": "function"
    },
    {
      "inputs": [
        {
          "internalType": "address",
          "name": "owner",
          "type": "address"
        },
        {
          "internalType": "bytes32",
          "name": "claimId",
          "type": "bytes32"
        }
      ],
      "name": "removeClaim",
      "outputs": [],
      "stateMutability": "nonpayable",
      "type": "function"
    },
    {
      "inputs": [
        {
          "internalType": "address",
          "name": "owner",
          "type": "address"
        },
        {
          "internalType": "bytes32",
          "name": "claimId",
          "type": "bytes32"
        },
        {
          "internalType": "bytes32",
          "name": "claimHash",
          "type": "bytes32"
        }
      ],
      "name": "setClaim",
      "outputs": [],
      "stateMutability": "nonpayable",
      "type": "function"
    },
    {
      "inputs": [
        {
          "internalType": "address",
          "name": "owner",
          "type": "address"
        },
        {
          "internalType": "string",
          "name": "cid",
          "type": "string"
        }
      ],
      "name": "setProfileCID",
      "outputs": [],
      "stateMutability": "nonpayable",
      "type": "function"
    }
  ],
  "bytecode": "0x608060405234801561001057600080fd5b50610daa806100206000396000f3fe608060405234801561001057600080fd5b50600436106100625760003560e01c80634361443f1461006757806346a59e5f1461009757806392849ca4146100b35780639918925d146100cf578063a1c8ca7e146100eb578063de8b05be14610107575b600080fd5b610081600480360381019061007c91906106da565b610137565b60405161008e9190610729565b60405180910390f35b6100b160048036038101906100ac91906107a9565b610192565b005b6100cd60048036038101906100c89190610809565b6102a5565b005b6100e960048036038101906100e49190610856565b610347565b005b610105600480360381019061010091906106da565b610460565b005b610121600480360381019061011c91906108a9565b61056c565b60405161012e9190610966565b60405180910390f35b6000600160008473ffffffffffffffffffffffffffffffffffffffff1673ffffffffffffffffffffffffffffffffffffffff168152602001908152602001600020600083815260200190815260200160002054905092915050565b828073ffffffffffffffffffffffffffffffffffffffff163373ffffffffffffffffffffffffffffffffffffffff1614610201576040517f08c379a00000000000000000000000000000000000000000000000000000000081526004016101f8906109d4565b60405180910390fd5b82826000808773ffffffffffffffffffffffffffffffffffffffff1673ffffffffffffffffffffffffffffffffffffffff168152602001908152602001600020918261024e929190610c44565b508373ffffffffffffffffffffffffffffffffffffffff167f56d78f91013a9df87c3059830b445edb071285effe6a7fe07fe1b235b9ae0fc38484604051610297929190610d50565b60405180910390a250505050565b81816000803373ffffffffffffffffffffffffffffffffffffffff1673ffffffffffffffffffffffffffffffffffffffff16815260200190815260200160002091826102f2929190610c44565b503373ffffffffffffffffffffffffffffffffffffffff167f56d78f91013a9df87c3059830b445edb071285effe6a7fe07fe1b235b9ae0fc3838360405161033b929190610d50565b60405180910390a25050565b828073ffffffffffffffffffffffffffffffffffffffff163373ffffffffffffffffffffffffffffffffffffffff16146103b6576040517f08c379a00000000000000000000000000000000000000000000000000000000081526004016103ad906109d4565b60405180910390fd5b81600160008673ffffffffffffffffffffffffffffffffffffffff1673ffffffffffffffffffffffffffffffffffffffff168152602001908152602001600020600085815260200190815260200160002081905550828473ffffffffffffffffffffffffffffffffffffffff167f32e23ce2e82f46f421b8ffb2c7c2e2fa3db44ade2ac5f6796f52db108a887c5b846040516104529190610729565b60405180910390a350505050565b818073ffffffffffffffffffffffffffffffffffffffff163373ffffffffffffffffffffffffffffffffffffffff16146104cf576040517f08c379a00000000000000000000000000000000000000000000000000000000081526004016104c6906109d4565b60405180910390fd5b600160008473ffffffffffffffffffffffffffffffffffffffff1673ffffffffffffffffffffffffffffffffffffffff168152602001908152602001600020600083815260200190815260200160002060009055818373ffffffffffffffffffffffffffffffffffffffff167f82ab91eafd2c6fb1627340b0d19493f5e5df4d920fbaaf6ac40124783af8bfd460405160405180910390a3505050565b60606000808373ffffffffffffffffffffffffffffffffffffffff1673ffffffffffffffffffffffffffffffffffffffff16815260200190815260200160002080546105b790610a5d565b80601f01602080910402602001604051908101604052809291908181526020018280546105e390610a5d565b80156106305780601f1061060557610100808354040283529160200191610630565b820191906000526020600020905b81548152906001019060200180831161061357829003601f168201915b50505050509050919050565b600080fd5b600080fd5b600073ffffffffffffffffffffffffffffffffffffffff82169050919050565b600061067182610646565b9050919050565b61068181610666565b811461068c57600080fd5b50565b60008135905061069e81610678565b92915050565b6000819050919050565b6106b7816106a4565b81146106c257600080fd5b50565b6000813590506106d4816106ae565b92915050565b600080604083850312156106f1576106f061063c565b5b60006106ff8582860161068f565b9250506020610710858286016106c5565b9150509250929050565b610723816106a4565b82525050565b600060208201905061073e600083018461071a565b92915050565b600080fd5b600080fd5b600080fd5b60008083601f84011261076957610768610744565b5b8235905067ffffffffffffffff81111561078657610785610749565b5b6020830191508360018202830111156107a2576107a161074e565b5b9250929050565b6000806000604084860312156107c2576107c161063c565b5b60006107d08682870161068f565b935050602084013567ffffffffffffffff8111156107f1576107f0610641565b5b6107fd86828701610753565b92509250509250925092565b600080602083850312156108205761081f61063c565b5b600083013567ffffffffffffffff81111561083e5761083d610641565b5b61084a85828601610753565b92509250509250929050565b60008060006060848603121561086f5761086e61063c565b5b600061087d8682870161068f565b935050602061088e868287016106c5565b925050604061089f868287016106c5565b9150509250925092565b6000602082840312156108bf576108be61063c565b5b60006108cd8482850161068f565b91505092915050565b600081519050919050565b600082825260208201905092915050565b60005b838110156109105780820151818401526020810190506108f5565b60008484015250505050565b6000601f19601f8301169050919050565b6000610938826108d6565b61094281856108e1565b93506109528185602086016108f2565b61095b8161091c565b840191505092915050565b60006020820190508181036000830152610980818461092d565b905092915050565b7f4e6f74206f776e65720000000000000000000000000000000000000000000000600082015250565b60006109be6009836108e1565b91506109c982610988565b602082019050919050565b600060208201905081810360008301526109ed816109b1565b9050919050565b600082905092915050565b7f4e487b7100000000000000000000000000000000000000000000000000000000600052604160045260246000fd5b7f4e487b7100000000000000000000000000000000000000000000000000000000600052602260045260246000fd5b60006002820490506001821680610a7557607f821691505b602082108103610a8857610a87610a2e565b5b50919050565b60008190508160005260206000209050919050565b60006020601f8301049050919050565b600082821b905092915050565b600060088302610af07fffffffffffffffffffffffffffffffffffffffffffffffffffffffffffffffff82610ab3565b610afa8683610ab3565b95508019841693508086168417925050509392505050565b6000819050919050565b6000819050919050565b6000610b41610b3c610b3784610b12565b610b1c565b610b12565b9050919050565b6000819050919050565b610b5b83610b26565b610b6f610b6782610b48565b848454610ac0565b825550505050565b600090565b610b84610b77565b610b8f818484610b52565b505050565b5b81811015610bb357610ba8600082610b7c565b600181019050610b95565b5050565b601f821115610bf857610bc981610a8e565b610bd284610aa3565b81016020851015610be1578190505b610bf5610bed85610aa3565b830182610b94565b50505b505050565b600082821c905092915050565b6000610c1b60001984600802610bfd565b1980831691505092915050565b6000610c348383610c0a565b9150826002028217905092915050565b610c4e83836109f4565b67ffffffffffffffff811115610c6757610c666109ff565b5b610c718254610a5d565b610c7c828285610bb7565b6000601f831160018114610cab5760008415610c99578287013590505b610ca38582610c28565b865550610d0b565b601f198416610cb986610a8e565b60005b82811015610ce157848901358255600182019150602085019450602081019050610cbc565b86831015610cfe5784890135610cfa601f891682610c0a565b8355505b6001600288020188555050505b50505050505050565b82818337600083830152505050565b6000610d2f83856108e1565b9350610d3c838584610d14565b610d458361091c565b840190509392505050565b60006020820190508181036000830152610d6b818486610d23565b9050939250505056fea26469706673582212206b1a7248dac5eb6742cfd53649468ff92443664cf72411a55fa9538c04c8780964736f6c63430008140033",
  "linkReferences": {},
  "deployedLinkReferences": {}
}