{
  "_format": "hh-sol-artifact-1",
  "contractName": "Forwarder",
  "sourceName": "contracts/gsn/Forwarder.sol",
  "abi": [
    {
      "inputs": [],
      "stateMutability": "nonpayable",
      "type": "constructor"
    },
    {
      "inputs": [
        {
          "internalType": "address",
          "name": "",
          "type": "address"
        }
      ],
      "name": "getNonce",
      "outputs": [
        {
          "internalType": "uint256",
          "name": "",
          "type": "uint256"
        }
      ],
      "stateMutability": "pure",
      "type": "function"
    },
    {
      "inputs": [],
      "name": "trustedForwarder",
      "outputs": [
        {
          "internalType": "address",
          "name": "",
          "type": "address"
        }
      ],
      "stateMutability": "view",
      "type": "function"
    },
    {
      "inputs": [
        {
          "internalType": "address",
          "name": "",
          "type": "address"
        },
        {
          "internalType": "uint256",
          "name": "",
          "type": "uint256"
        },
        {
          "internalType": "bytes",
          "name": "",
          "type": "bytes"
        },
        {
          "internalType": "bytes",
          "name": "",
          "type": "bytes"
        }
      ],
      "name": "verify",
      "outputs": [
        {
          "internalType": "bool",
          "name": "",
          "type": "bool"
        }
      ],
      "stateMutability": "pure",
      "type": "function"
    },
    {
      "stateMutability": "payable",
      "type": "receive"
    }
  ],
  "bytecode": "0x608060405234801561001057600080fd5b50600080546001600160a01b0319163317905561027a806100326000396000f3fe6080604052600436106100385760003560e01c80632d0335ab146100445780637da0a87714610078578063d59456a9146100b057600080fd5b3661003f57005b600080fd5b34801561005057600080fd5b5061006561005f366004610101565b50600090565b6040519081526020015b60405180910390f35b34801561008457600080fd5b50600054610098906001600160a01b031681565b6040516001600160a01b03909116815260200161006f565b3480156100bc57600080fd5b506100d56100cb3660046101c6565b6001949350505050565b604051901515815260200161006f565b80356001600160a01b03811681146100fc57600080fd5b919050565b60006020828403121561011357600080fd5b61011c826100e5565b9392505050565b634e487b7160e01b600052604160045260246000fd5b600082601f83011261014a57600080fd5b813567ffffffffffffffff8082111561016557610165610123565b604051601f8301601f19908116603f0116810190828211818310171561018d5761018d610123565b816040528381528660208588010111156101a657600080fd5b836020870160208301376000602085830101528094505050505092915050565b600080600080608085870312156101dc57600080fd5b6101e5856100e5565b935060208501359250604085013567ffffffffffffffff8082111561020957600080fd5b61021588838901610139565b9350606087013591508082111561022b57600080fd5b5061023887828801610139565b9150509295919450925056fea264697066735822122086514f9b9bfb2545db248b55451dbd57192175439b70bf2ea22d09aad396cf1a64736f6c63430008140033",
  "linkReferences": {},
  "deployedLinkReferences": {}
}