{"contracts/IdentityRegistryMeta.sol":{"IdentityRegistryMeta":{"abi":[{"inputs":[{"internalType":"address","name":"trustedForwarder","type":"address"}],"stateMutability":"nonpayable","type":"constructor"},{"anonymous":false,"inputs":[{"indexed":true,"internalType":"address","name":"owner","type":"address"},{"indexed":true,"internalType":"bytes32","name":"claimId","type":"bytes32"}],"name":"ClaimRemoved","type":"event"},{"anonymous":false,"inputs":[{"indexed":true,"internalType":"address","name":"owner","type":"address"},{"indexed":true,"internalType":"bytes32","name":"claimId","type":"bytes32"},{"indexed":false,"internalType":"bytes32","name":"claimHash","type":"bytes32"}],"name":"ClaimSet","type":"event"},{"anonymous":false,"inputs":[{"indexed":true,"internalType":"address","name":"owner","type":"address"},{"indexed":false,"internalType":"string","name":"cid","type":"string"}],"name":"IdentityRegistered","type":"event"},{"anonymous":false,"inputs":[{"indexed":true,"internalType":"address","name":"owner","type":"address"},{"indexed":false,"internalType":"string","name":"cid","type":"string"}],"name":"ProfileSet","type":"event"},{"inputs":[{"internalType":"address","name":"owner","type":"address"},{"internalType":"bytes32","name":"claimId","type":"bytes32"}],"name":"getClaim","outputs":[{"internalType":"bytes32","name":"","type":"bytes32"}],"stateMutability":"view","type":"function"},{"inputs":[{"internalType":"address","name":"owner","type":"address"}],"name":"getProfileCID","outputs":[{"internalType":"string","name":"","type":"string"}],"stateMutability":"view","type":"function"},{"inputs":[{"internalType":"address","name":"owner","type":"address"}],"name":"hasProfile","outputs":[{"internalType":"bool","name":"","type":"bool"}],"stateMutability":"view","type":"function"},{"inputs":[{"internalType":"address","name":"forwarder","type":"address"}],"name":"isTrustedForwarder","outputs":[{"internalType":"bool","name":"","type":"bool"}],"stateMutability":"view","type":"function"},{"inputs":[{"internalType":"string","name":"cid","type":"string"}],"name":"registerIdentity","outputs":[],"stateMutability":"nonpayable","type":"function"},{"inputs":[{"internalType":"address","name":"owner","type":"address"},{"internalType":"bytes32","name":"claimId","type":"bytes32"}],"name":"removeClaim","outputs":[],"stateMutability":"nonpayable","type":"function"},{"inputs":[{"internalType":"address","name":"owner","type":"address"},{"internalType":"bytes32","name":"claimId","type":"bytes32"},{"internalType":"bytes32","name":"claimHash","type":"bytes32"}],"name":"setClaim","outputs":[],"stateMutability":"nonpayable","type":"function"},{"inputs":[{"internalType":"address","name":"owner","type":"address"},{"internalType":"string","name":"cid","type":"string"}],"name":"setProfileCID","outputs":[],"stateMutability":"nonpayable","type":"function"},{"inputs":[],"name":"trustedForwarder","outputs":[{"internalType":"address","name":"","type":"address"}],"stateMutability":"view","type":"function"},{"stateMutability":"payable","type":"receive"}],"evm":{"bytecode":{"linkReferences":{},"object":"60a060405234801561001057600080fd5b50604051610b37380380610b3783398101604081905261002f91610040565b6001600160a01b0316608052610070565b60006020828403121561005257600080fd5b81516001600160a01b038116811461006957600080fd5b9392505050565b608051610a9e610099600039600081816101080152818161016201526105f50152610a9e6000f3fe60806040526004361061008a5760003560e01c806392849ca41161005957806392849ca41461018c5780639918925d146101ac578063a1c8ca7e146101cc578063a787c80b146101ec578063de8b05be1461020c57600080fd5b80634361443f1461009657806346a59e5f146100c9578063572b6c05146100eb5780637da0a8771461014857600080fd5b3661009157005b600080fd5b3480156100a257600080fd5b506100b66100b136600461067f565b610239565b6040519081526020015b60405180910390f35b3480156100d557600080fd5b506100e96100e43660046106f2565b610264565b005b3480156100f757600080fd5b50610138610106366004610745565b7f00000000000000000000000000000000000000000000000000000000000000006001600160a01b0390811691161490565b60405190151581526020016100c0565b34801561015457600080fd5b506040516001600160a01b037f00000000000000000000000000000000000000000000000000000000000000001681526020016100c0565b34801561019857600080fd5b506100e96101a7366004610767565b610313565b3480156101b857600080fd5b506100e96101c73660046107a9565b6103de565b3480156101d857600080fd5b506100e96101e736600461067f565b610477565b3480156101f857600080fd5b50610138610207366004610745565b610503565b34801561021857600080fd5b5061022c610227366004610745565b610533565b6040516100c091906107dc565b6001600160a01b03821660009081526001602090815260408083208484529091529020545b92915050565b82806001600160a01b03166102776105df565b6001600160a01b0316146102a65760405162461bcd60e51b815260040161029d9061082a565b60405180910390fd5b6001600160a01b03841660009081526020819052604090206102c98385836108f8565b50836001600160a01b03167f56d78f91013a9df87c3059830b445edb071285effe6a7fe07fe1b235b9ae0fc384846040516103059291906109b9565b60405180910390a250505050565b81816000806103206105df565b6001600160a01b031681526020810191909152604001600020916103459190836108f8565b5061034e6105df565b6001600160a01b03167f56d78f91013a9df87c3059830b445edb071285effe6a7fe07fe1b235b9ae0fc383836040516103889291906109b9565b60405180910390a26103986105df565b6001600160a01b03167f9b6805eb7a1bee8a797c79c5f2a39a182f3d37f8b8cce5ec42371000c8115dfd83836040516103d29291906109b9565b60405180910390a25050565b82806001600160a01b03166103f16105df565b6001600160a01b0316146104175760405162461bcd60e51b815260040161029d9061082a565b6001600160a01b038416600081815260016020908152604080832087845282529182902085905590518481528592917f32e23ce2e82f46f421b8ffb2c7c2e2fa3db44ade2ac5f6796f52db108a887c5b910160405180910390a350505050565b81806001600160a01b031661048a6105df565b6001600160a01b0316146104b05760405162461bcd60e51b815260040161029d9061082a565b6001600160a01b0383166000818152600160209081526040808320868452909152808220829055518492917f82ab91eafd2c6fb1627340b0d19493f5e5df4d920fbaaf6ac40124783af8bfd491a3505050565b6001600160a01b038116600090815260208190526040812080548291906105299061086f565b9050119050919050565b6001600160a01b038116600090815260208190526040902080546060919061055a9061086f565b80601f01602080910402602001604051908101604052809291908181526020018280546105869061086f565b80156105d35780601f106105a8576101008083540402835291602001916105d3565b820191906000526020600020905b8154815290600101906020018083116105b657829003601f168201915b50505050509050919050565b60006105e96105ee565b905090565b60003660147f00000000000000000000000000000000000000000000000000000000000000006001600160a01b03163314801561062b5750808210155b1561065b5760003661063d83856109e8565b610648928290610a09565b61065191610a33565b60601c9250505090565b339250505090565b80356001600160a01b038116811461067a57600080fd5b919050565b6000806040838503121561069257600080fd5b61069b83610663565b946020939093013593505050565b60008083601f8401126106bb57600080fd5b50813567ffffffffffffffff8111156106d357600080fd5b6020830191508360208285010111156106eb57600080fd5b9250929050565b60008060006040848603121561070757600080fd5b61071084610663565b9250602084013567ffffffffffffffff81111561072c57600080fd5b610738868287016106a9565b9497909650939450505050565b60006020828403121561075757600080fd5b61076082610663565b9392505050565b6000806020838503121561077a57600080fd5b823567ffffffffffffffff81111561079157600080fd5b61079d858286016106a9565b90969095509350505050565b6000806000606084860312156107be57600080fd5b6107c784610663565b95602085013595506040909401359392505050565b600060208083528351808285015260005b81811015610809578581018301518582016040015282016107ed565b506000604082860101526040601f19601f8301168501019250505092915050565b6020808252601590820152742737ba103a343290383937b334b6329037bbb732b960591b604082015260600190565b634e487b7160e01b600052604160045260246000fd5b600181811c9082168061088357607f821691505b6020821081036108a357634e487b7160e01b600052602260045260246000fd5b50919050565b601f8211156108f357600081815260208120601f850160051c810160208610156108d05750805b601f850160051c820191505b818110156108ef578281556001016108dc565b5050505b505050565b67ffffffffffffffff83111561091057610910610859565b6109248361091e835461086f565b836108a9565b6000601f84116001811461095857600085156109405750838201355b600019600387901b1c1916600186901b1783556109b2565b600083815260209020601f19861690835b828110156109895786850135825560209485019460019092019101610969565b50868210156109a65760001960f88860031b161c19848701351681555b505060018560011b0183555b5050505050565b60208152816020820152818360408301376000818301604090810191909152601f909201601f19160101919050565b8181038181111561025e57634e487b7160e01b600052601160045260246000fd5b60008085851115610a1957600080fd5b83861115610a2657600080fd5b5050820193919092039150565b6bffffffffffffffffffffffff198135818116916014851015610a605780818660140360031b1b83161692505b50509291505056fea2646970667358221220ab7728f0630307092a62a8a6809a6b5bf242d5bb2b13a126d7856708afbfc60d64736f6c63430008140033","opcodes":"PUSH1 0xA0 PUSH1 0x40 MSTORE CALLVALUE DUP1 ISZERO PUSH2 0x10 JUMPI PUSH1 0x0 DUP1 REVERT JUMPDEST POP PUSH1 0x40 MLOAD PUSH2 0xB37 CODESIZE SUB DUP1 PUSH2 0xB37 DUP4 CODECOPY DUP2 ADD PUSH1 0x40 DUP2 SWAP1 MSTORE PUSH2 0x2F SWAP2 PUSH2 0x40 JUMP JUMPDEST PUSH1 0x1 PUSH1 0x1 PUSH1 0xA0 SHL SUB AND PUSH1 0x80 MSTORE PUSH2 0x70 JUMP JUMPDEST PUSH1 0x0 PUSH1 0x20 DUP3 DUP5 SUB SLT ISZERO PUSH2 0x52 JUMPI PUSH1 0x0 DUP1 REVERT JUMPDEST DUP2 MLOAD PUSH1 0x1 PUSH1 0x1 PUSH1 0xA0 SHL SUB DUP2 AND DUP2 EQ PUSH2 0x69 JUMPI PUSH1 0x0 DUP1 REVERT JUMPDEST SWAP4 SWAP3 POP POP POP JUMP JUMPDEST PUSH1 0x80 MLOAD PUSH2 0xA9E PUSH2 0x99 PUSH1 0x0 CODECOPY PUSH1 0x0 DUP2 DUP2 PUSH2 0x108 ADD MSTORE DUP2 DUP2 PUSH2 0x162 ADD MSTORE PUSH2 0x5F5 ADD MSTORE PUSH2 0xA9E PUSH1 0x0 RETURN INVALID PUSH1 0x80 PUSH1 0x40 MSTORE PUSH1 0x4 CALLDATASIZE LT PUSH2 0x8A JUMPI PUSH1 0x0 CALLDATALOAD PUSH1 0xE0 SHR DUP1 PUSH4 0x92849CA4 GT PUSH2 0x59 JUMPI DUP1 PUSH4 0x92849CA4 EQ PUSH2 0x18C JUMPI DUP1 PUSH4 0x9918925D EQ PUSH2 0x1AC JUMPI DUP1 PUSH4 0xA1C8CA7E EQ PUSH2 0x1CC JUMPI DUP1 PUSH4 0xA787C80B EQ PUSH2 0x1EC JUMPI DUP1 PUSH4 0xDE8B05BE EQ PUSH2 0x20C JUMPI PUSH1 0x0 DUP1 REVERT JUMPDEST DUP1 PUSH4 0x4361443F EQ PUSH2 0x96 JUMPI DUP1 PUSH4 0x46A59E5F EQ PUSH2 0xC9 JUMPI DUP1 PUSH4 0x572B6C05 EQ PUSH2 0xEB JUMPI DUP1 PUSH4 0x7DA0A877 EQ PUSH2 0x148 JUMPI PUSH1 0x0 DUP1 REVERT JUMPDEST CALLDATASIZE PUSH2 0x91 JUMPI STOP JUMPDEST PUSH1 0x0 DUP1 REVERT JUMPDEST CALLVALUE DUP1 ISZERO PUSH2 0xA2 JUMPI PUSH1 0x0 DUP1 REVERT JUMPDEST POP PUSH2 0xB6 PUSH2 0xB1 CALLDATASIZE PUSH1 0x4 PUSH2 0x67F JUMP JUMPDEST PUSH2 0x239 JUMP JUMPDEST PUSH1 0x40 MLOAD SWAP1 DUP2 MSTORE PUSH1 0x20 ADD JUMPDEST PUSH1 0x40 MLOAD DUP1 SWAP2 SUB SWAP1 RETURN JUMPDEST CALLVALUE DUP1 ISZERO PUSH2 0xD5 JUMPI PUSH1 0x0 DUP1 REVERT JUMPDEST POP PUSH2 0xE9 PUSH2 0xE4 CALLDATASIZE PUSH1 0x4 PUSH2 0x6F2 JUMP JUMPDEST PUSH2 0x264 JUMP JUMPDEST STOP JUMPDEST CALLVALUE DUP1 ISZERO PUSH2 0xF7 JUMPI PUSH1 0x0 DUP1 REVERT JUMPDEST POP PUSH2 0x138 PUSH2 0x106 CALLDATASIZE PUSH1 0x4 PUSH2 0x745 JUMP JUMPDEST PUSH32 0x0 PUSH1 0x1 PUSH1 0x1 PUSH1 0xA0 SHL SUB SWAP1 DUP2 AND SWAP2 AND EQ SWAP1 JUMP JUMPDEST PUSH1 0x40 MLOAD SWAP1 ISZERO ISZERO DUP2 MSTORE PUSH1 0x20 ADD PUSH2 0xC0 JUMP JUMPDEST CALLVALUE DUP1 ISZERO PUSH2 0x154 JUMPI PUSH1 0x0 DUP1 REVERT JUMPDEST POP PUSH1 0x40 MLOAD PUSH1 0x1 PUSH1 0x1 PUSH1 0xA0 SHL SUB PUSH32 0x0 AND DUP2 MSTORE PUSH1 0x20 ADD PUSH2 0xC0 JUMP JUMPDEST CALLVALUE DUP1 ISZERO PUSH2 0x198 JUMPI PUSH1 0x0 DUP1 REVERT JUMPDEST POP PUSH2 0xE9 PUSH2 0x1A7 CALLDATASIZE PUSH1 0x4 PUSH2 0x767 JUMP JUMPDEST PUSH2 0x313 JUMP JUMPDEST CALLVALUE DUP1 ISZERO PUSH2 0x1B8 JUMPI PUSH1 0x0 DUP1 REVERT JUMPDEST POP PUSH2 0xE9 PUSH2 0x1C7 CALLDATASIZE PUSH1 0x4 PUSH2 0x7A9 JUMP JUMPDEST PUSH2 0x3DE JUMP JUMPDEST CALLVALUE DUP1 ISZERO PUSH2 0x1D8 JUMPI PUSH1 0x0 DUP1 REVERT JUMPDEST POP PUSH2 0xE9 PUSH2 0x1E7 CALLDATASIZE PUSH1 0x4 PUSH2 0x67F JUMP JUMPDEST PUSH2 0x477 JUMP JUMPDEST CALLVALUE DUP1 ISZERO PUSH2 0x1F8 JUMPI PUSH1 0x0 DUP1 REVERT JUMPDEST POP PUSH2 0x138 PUSH2 0x207 CALLDATASIZE PUSH1 0x4 PUSH2 0x745 JUMP JUMPDEST PUSH2 0x503 JUMP JUMPDEST CALLVALUE DUP1 ISZERO PUSH2 0x218 JUMPI PUSH1 0x0 DUP1 REVERT JUMPDEST POP PUSH2 0x22C PUSH2 0x227 CALLDATASIZE PUSH1 0x4 PUSH2 0x745 JUMP JUMPDEST PUSH2 0x533 JUMP JUMPDEST PUSH1 0x40 MLOAD PUSH2 0xC0 SWAP2 SWAP1 PUSH2 0x7DC JUMP JUMPDEST PUSH1 0x1 PUSH1 0x1 PUSH1 0xA0 SHL SUB DUP3 AND PUSH1 0x0 SWAP1 DUP2 MSTORE PUSH1 0x1 PUSH1 0x20 SWAP1 DUP2 MSTORE PUSH1 0x40 DUP1 DUP4 KECCAK256 DUP5 DUP5 MSTORE SWAP1 SWAP2 MSTORE SWAP1 KECCAK256 SLOAD JUMPDEST SWAP3 SWAP2 POP POP JUMP JUMPDEST DUP3 DUP1 PUSH1 0x1 PUSH1 0x1 PUSH1 0xA0 SHL SUB AND PUSH2 0x277 PUSH2 0x5DF JUMP JUMPDEST PUSH1 0x1 PUSH1 0x1 PUSH1 0xA0 SHL SUB AND EQ PUSH2 0x2A6 JUMPI PUSH1 0x40 MLOAD PUSH3 0x461BCD PUSH1 0xE5 SHL DUP2 MSTORE PUSH1 0x4 ADD PUSH2 0x29D SWAP1 PUSH2 0x82A JUMP JUMPDEST PUSH1 0x40 MLOAD DUP1 SWAP2 SUB SWAP1 REVERT JUMPDEST PUSH1 0x1 PUSH1 0x1 PUSH1 0xA0 SHL SUB DUP5 AND PUSH1 0x0 SWAP1 DUP2 MSTORE PUSH1 0x20 DUP2 SWAP1 MSTORE PUSH1 0x40 SWAP1 KECCAK256 PUSH2 0x2C9 DUP4 DUP6 DUP4 PUSH2 0x8F8 JUMP JUMPDEST POP DUP4 PUSH1 0x1 PUSH1 0x1 PUSH1 0xA0 SHL SUB AND PUSH32 0x56D78F91013A9DF87C3059830B445EDB071285EFFE6A7FE07FE1B235B9AE0FC3 DUP5 DUP5 PUSH1 0x40 MLOAD PUSH2 0x305 SWAP3 SWAP2 SWAP1 PUSH2 0x9B9 JUMP JUMPDEST PUSH1 0x40 MLOAD DUP1 SWAP2 SUB SWAP1 LOG2 POP POP POP POP JUMP JUMPDEST DUP2 DUP2 PUSH1 0x0 DUP1 PUSH2 0x320 PUSH2 0x5DF JUMP JUMPDEST PUSH1 0x1 PUSH1 0x1 PUSH1 0xA0 SHL SUB AND DUP2 MSTORE PUSH1 0x20 DUP2 ADD SWAP2 SWAP1 SWAP2 MSTORE PUSH1 0x40 ADD PUSH1 0x0 KECCAK256 SWAP2 PUSH2 0x345 SWAP2 SWAP1 DUP4 PUSH2 0x8F8 JUMP JUMPDEST POP PUSH2 0x34E PUSH2 0x5DF JUMP JUMPDEST PUSH1 0x1 PUSH1 0x1 PUSH1 0xA0 SHL SUB AND PUSH32 0x56D78F91013A9DF87C3059830B445EDB071285EFFE6A7FE07FE1B235B9AE0FC3 DUP4 DUP4 PUSH1 0x40 MLOAD PUSH2 0x388 SWAP3 SWAP2 SWAP1 PUSH2 0x9B9 JUMP JUMPDEST PUSH1 0x40 MLOAD DUP1 SWAP2 SUB SWAP1 LOG2 PUSH2 0x398 PUSH2 0x5DF JUMP JUMPDEST PUSH1 0x1 PUSH1 0x1 PUSH1 0xA0 SHL SUB AND PUSH32 0x9B6805EB7A1BEE8A797C79C5F2A39A182F3D37F8B8CCE5EC42371000C8115DFD DUP4 DUP4 PUSH1 0x40 MLOAD PUSH2 0x3D2 SWAP3 SWAP2 SWAP1 PUSH2 0x9B9 JUMP JUMPDEST PUSH1 0x40 MLOAD DUP1 SWAP2 SUB SWAP1 LOG2 POP POP JUMP JUMPDEST DUP3 DUP1 PUSH1 0x1 PUSH1 0x1 PUSH1 0xA0 SHL SUB AND PUSH2 0x3F1 PUSH2 0x5DF JUMP JUMPDEST PUSH1 0x1 PUSH1 0x1 PUSH1 0xA0 SHL SUB AND EQ PUSH2 0x417 JUMPI PUSH1 0x40 MLOAD PUSH3 0x461BCD PUSH1 0xE5 SHL DUP2 MSTORE PUSH1 0x4 ADD PUSH2 0x29D SWAP1 PUSH2 0x82A JUMP JUMPDEST PUSH1 0x1 PUSH1 0x1 PUSH1 0xA0 SHL SUB DUP5 AND PUSH1 0x0 DUP2 DUP2 MSTORE PUSH1 0x1 PUSH1 0x20 SWAP1 DUP2 MSTORE PUSH1 0x40 DUP1 DUP4 KECCAK256 DUP8 DUP5 MSTORE DUP3 MSTORE SWAP2 DUP3 SWAP1 KECCAK256 DUP6 SWAP1 SSTORE SWAP1 MLOAD DUP5 DUP2 MSTORE DUP6 SWAP3 SWAP2 PUSH32 0x32E23CE2E82F46F421B8FFB2C7C2E2FA3DB44ADE2AC5F6796F52DB108A887C5B SWAP2 ADD PUSH1 0x40 MLOAD DUP1 SWAP2 SUB SWAP1 LOG3 POP POP POP POP JUMP JUMPDEST DUP2 DUP1 PUSH1 0x1 PUSH1 0x1 PUSH1 0xA0 SHL SUB AND PUSH2 0x48A PUSH2 0x5DF JUMP JUMPDEST PUSH1 0x1 PUSH1 0x1 PUSH1 0xA0 SHL SUB AND EQ PUSH2 0x4B0 JUMPI PUSH1 0x40 MLOAD PUSH3 0x461BCD PUSH1 0xE5 SHL DUP2 MSTORE PUSH1 0x4 ADD PUSH2 0x29D SWAP1 PUSH2 0x82A JUMP JUMPDEST PUSH1 0x1 PUSH1 0x1 PUSH1 0xA0 SHL SUB DUP4 AND PUSH1 0x0 DUP2 DUP2 MSTORE PUSH1 0x1 PUSH1 0x20 SWAP1 DUP2 MSTORE PUSH1 0x40 DUP1 DUP4 KECCAK256 DUP7 DUP5 MSTORE SWAP1 SWAP2 MSTORE DUP1 DUP3 KECCAK256 DUP3 SWAP1 SSTORE MLOAD DUP5 SWAP3 SWAP2 PUSH32 0x82AB91EAFD2C6FB1627340B0D19493F5E5DF4D920FBAAF6AC40124783AF8BFD4 SWAP2 LOG3 POP POP POP JUMP JUMPDEST PUSH1 0x1 PUSH1 0x1 PUSH1 0xA0 SHL SUB DUP2 AND PUSH1 0x0 SWAP1 DUP2 MSTORE PUSH1 0x20 DUP2 SWAP1 MSTORE PUSH1 0x40 DUP2 KECCAK256 DUP1 SLOAD DUP3 SWAP2 SWAP1 PUSH2 0x529 SWAP1 PUSH2 0x86F JUMP JUMPDEST SWAP1 POP GT SWAP1 POP SWAP2 SWAP1 POP JUMP JUMPDEST PUSH1 0x1 PUSH1 0x1 PUSH1 0xA0 SHL SUB DUP2 AND PUSH1 0x0 SWAP1 DUP2 MSTORE PUSH1 0x20 DUP2 SWAP1 MSTORE PUSH1 0x40 SWAP1 KECCAK256 DUP1 SLOAD PUSH1 0x60 SWAP2 SWAP1 PUSH2 0x55A SWAP1 PUSH2 0x86F JUMP JUMPDEST DUP1 PUSH1 0x1F ADD PUSH1 0x20 DUP1 SWAP2 DIV MUL PUSH1 0x20 ADD PUSH1 0x40 MLOAD SWAP1 DUP2 ADD PUSH1 0x40 MSTORE DUP1 SWAP3 SWAP2 SWAP1 DUP2 DUP2 MSTORE PUSH1 0x20 ADD DUP3 DUP1 SLOAD PUSH2 0x586 SWAP1 PUSH2 0x86F JUMP JUMPDEST DUP1 ISZERO PUSH2 0x5D3 JUMPI DUP1 PUSH1 0x1F LT PUSH2 0x5A8 JUMPI PUSH2 0x100 DUP1 DUP4 SLOAD DIV MUL DUP4 MSTORE SWAP2 PUSH1 0x20 ADD SWAP2 PUSH2 0x5D3 JUMP JUMPDEST DUP3 ADD SWAP2 SWAP1 PUSH1 0x0 MSTORE PUSH1 0x20 PUSH1 0x0 KECCAK256 SWAP1 JUMPDEST DUP2 SLOAD DUP2 MSTORE SWAP1 PUSH1 0x1 ADD SWAP1 PUSH1 0x20 ADD DUP1 DUP4 GT PUSH2 0x5B6 JUMPI DUP3 SWAP1 SUB PUSH1 0x1F AND DUP3 ADD SWAP2 JUMPDEST POP POP POP POP POP SWAP1 POP SWAP2 SWAP1 POP JUMP JUMPDEST PUSH1 0x0 PUSH2 0x5E9 PUSH2 0x5EE JUMP JUMPDEST SWAP1 POP SWAP1 JUMP JUMPDEST PUSH1 0x0 CALLDATASIZE PUSH1 0x14 PUSH32 0x0 PUSH1 0x1 PUSH1 0x1 PUSH1 0xA0 SHL SUB AND CALLER EQ DUP1 ISZERO PUSH2 0x62B JUMPI POP DUP1 DUP3 LT ISZERO JUMPDEST ISZERO PUSH2 0x65B JUMPI PUSH1 0x0 CALLDATASIZE PUSH2 0x63D DUP4 DUP6 PUSH2 0x9E8 JUMP JUMPDEST PUSH2 0x648 SWAP3 DUP3 SWAP1 PUSH2 0xA09 JUMP JUMPDEST PUSH2 0x651 SWAP2 PUSH2 0xA33 JUMP JUMPDEST PUSH1 0x60 SHR SWAP3 POP POP POP SWAP1 JUMP JUMPDEST CALLER SWAP3 POP POP POP SWAP1 JUMP JUMPDEST DUP1 CALLDATALOAD PUSH1 0x1 PUSH1 0x1 PUSH1 0xA0 SHL SUB DUP2 AND DUP2 EQ PUSH2 0x67A JUMPI PUSH1 0x0 DUP1 REVERT JUMPDEST SWAP2 SWAP1 POP JUMP JUMPDEST PUSH1 0x0 DUP1 PUSH1 0x40 DUP4 DUP6 SUB SLT ISZERO PUSH2 0x692 JUMPI PUSH1 0x0 DUP1 REVERT JUMPDEST PUSH2 0x69B DUP4 PUSH2 0x663 JUMP JUMPDEST SWAP5 PUSH1 0x20 SWAP4 SWAP1 SWAP4 ADD CALLDATALOAD SWAP4 POP POP POP JUMP JUMPDEST PUSH1 0x0 DUP1 DUP4 PUSH1 0x1F DUP5 ADD SLT PUSH2 0x6BB JUMPI PUSH1 0x0 DUP1 REVERT JUMPDEST POP DUP2 CALLDATALOAD PUSH8 0xFFFFFFFFFFFFFFFF DUP2 GT ISZERO PUSH2 0x6D3 JUMPI PUSH1 0x0 DUP1 REVERT JUMPDEST PUSH1 0x20 DUP4 ADD SWAP2 POP DUP4 PUSH1 0x20 DUP3 DUP6 ADD ADD GT ISZERO PUSH2 0x6EB JUMPI PUSH1 0x0 DUP1 REVERT JUMPDEST SWAP3 POP SWAP3 SWAP1 POP JUMP JUMPDEST PUSH1 0x0 DUP1 PUSH1 0x0 PUSH1 0x40 DUP5 DUP7 SUB SLT ISZERO PUSH2 0x707 JUMPI PUSH1 0x0 DUP1 REVERT JUMPDEST PUSH2 0x710 DUP5 PUSH2 0x663 JUMP JUMPDEST SWAP3 POP PUSH1 0x20 DUP5 ADD CALLDATALOAD PUSH8 0xFFFFFFFFFFFFFFFF DUP2 GT ISZERO PUSH2 0x72C JUMPI PUSH1 0x0 DUP1 REVERT JUMPDEST PUSH2 0x738 DUP7 DUP3 DUP8 ADD PUSH2 0x6A9 JUMP JUMPDEST SWAP5 SWAP8 SWAP1 SWAP7 POP SWAP4 SWAP5 POP POP POP POP JUMP JUMPDEST PUSH1 0x0 PUSH1 0x20 DUP3 DUP5 SUB SLT ISZERO PUSH2 0x757 JUMPI PUSH1 0x0 DUP1 REVERT JUMPDEST PUSH2 0x760 DUP3 PUSH2 0x663 JUMP JUMPDEST SWAP4 SWAP3 POP POP POP JUMP JUMPDEST PUSH1 0x0 DUP1 PUSH1 0x20 DUP4 DUP6 SUB SLT ISZERO PUSH2 0x77A JUMPI PUSH1 0x0 DUP1 REVERT JUMPDEST DUP3 CALLDATALOAD PUSH8 0xFFFFFFFFFFFFFFFF DUP2 GT ISZERO PUSH2 0x791 JUMPI PUSH1 0x0 DUP1 REVERT JUMPDEST PUSH2 0x79D DUP6 DUP3 DUP7 ADD PUSH2 0x6A9 JUMP JUMPDEST SWAP1 SWAP7 SWAP1 SWAP6 POP SWAP4 POP POP POP POP JUMP JUMPDEST PUSH1 0x0 DUP1 PUSH1 0x0 PUSH1 0x60 DUP5 DUP7 SUB SLT ISZERO PUSH2 0x7BE JUMPI PUSH1 0x0 DUP1 REVERT JUMPDEST PUSH2 0x7C7 DUP5 PUSH2 0x663 JUMP JUMPDEST SWAP6 PUSH1 0x20 DUP6 ADD CALLDATALOAD SWAP6 POP PUSH1 0x40 SWAP1 SWAP5 ADD CALLDATALOAD SWAP4 SWAP3 POP POP POP JUMP JUMPDEST PUSH1 0x0 PUSH1 0x20 DUP1 DUP4 MSTORE DUP4 MLOAD DUP1 DUP3 DUP6 ADD MSTORE PUSH1 0x0 JUMPDEST DUP2 DUP2 LT ISZERO PUSH2 0x809 JUMPI DUP6 DUP2 ADD DUP4 ADD MLOAD DUP6 DUP3 ADD PUSH1 0x40 ADD MSTORE DUP3 ADD PUSH2 0x7ED JUMP JUMPDEST POP PUSH1 0x0 PUSH1 0x40 DUP3 DUP7 ADD ADD MSTORE PUSH1 0x40 PUSH1 0x1F NOT PUSH1 0x1F DUP4 ADD AND DUP6 ADD ADD SWAP3 POP POP POP SWAP3 SWAP2 POP POP JUMP JUMPDEST PUSH1 0x20 DUP1 DUP3 MSTORE PUSH1 0x15 SWAP1 DUP3 ADD MSTORE PUSH21 0x2737BA103A343290383937B334B6329037BBB732B9 PUSH1 0x59 SHL PUSH1 0x40 DUP3 ADD MSTORE PUSH1 0x60 ADD SWAP1 JUMP JUMPDEST PUSH4 0x4E487B71 PUSH1 0xE0 SHL PUSH1 0x0 MSTORE PUSH1 0x41 PUSH1 0x4 MSTORE PUSH1 0x24 PUSH1 0x0 REVERT JUMPDEST PUSH1 0x1 DUP2 DUP2 SHR SWAP1 DUP3 AND DUP1 PUSH2 0x883 JUMPI PUSH1 0x7F DUP3 AND SWAP2 POP JUMPDEST PUSH1 0x20 DUP3 LT DUP2 SUB PUSH2 0x8A3 JUMPI PUSH4 0x4E487B71 PUSH1 0xE0 SHL PUSH1 0x0 MSTORE PUSH1 0x22 PUSH1 0x4 MSTORE PUSH1 0x24 PUSH1 0x0 REVERT JUMPDEST POP SWAP2 SWAP1 POP JUMP JUMPDEST PUSH1 0x1F DUP3 GT ISZERO PUSH2 0x8F3 JUMPI PUSH1 0x0 DUP2 DUP2 MSTORE PUSH1 0x20 DUP2 KECCAK256 PUSH1 0x1F DUP6 ADD PUSH1 0x5 SHR DUP2 ADD PUSH1 0x20 DUP7 LT ISZERO PUSH2 0x8D0 JUMPI POP DUP1 JUMPDEST PUSH1 0x1F DUP6 ADD PUSH1 0x5 SHR DUP3 ADD SWAP2 POP JUMPDEST DUP2 DUP2 LT ISZERO PUSH2 0x8EF JUMPI DUP3 DUP2 SSTORE PUSH1 0x1 ADD PUSH2 0x8DC JUMP JUMPDEST POP POP POP JUMPDEST POP POP POP JUMP JUMPDEST PUSH8 0xFFFFFFFFFFFFFFFF DUP4 GT ISZERO PUSH2 0x910 JUMPI PUSH2 0x910 PUSH2 0x859 JUMP JUMPDEST PUSH2 0x924 DUP4 PUSH2 0x91E DUP4 SLOAD PUSH2 0x86F JUMP JUMPDEST DUP4 PUSH2 0x8A9 JUMP JUMPDEST PUSH1 0x0 PUSH1 0x1F DUP5 GT PUSH1 0x1 DUP2 EQ PUSH2 0x958 JUMPI PUSH1 0x0 DUP6 ISZERO PUSH2 0x940 JUMPI POP DUP4 DUP3 ADD CALLDATALOAD JUMPDEST PUSH1 0x0 NOT PUSH1 0x3 DUP8 SWAP1 SHL SHR NOT AND PUSH1 0x1 DUP7 SWAP1 SHL OR DUP4 SSTORE PUSH2 0x9B2 JUMP JUMPDEST PUSH1 0x0 DUP4 DUP2 MSTORE PUSH1 0x20 SWAP1 KECCAK256 PUSH1 0x1F NOT DUP7 AND SWAP1 DUP4 JUMPDEST DUP3 DUP2 LT ISZERO PUSH2 0x989 JUMPI DUP7 DUP6 ADD CALLDATALOAD DUP3 SSTORE PUSH1 0x20 SWAP5 DUP6 ADD SWAP5 PUSH1 0x1 SWAP1 SWAP3 ADD SWAP2 ADD PUSH2 0x969 JUMP JUMPDEST POP DUP7 DUP3 LT ISZERO PUSH2 0x9A6 JUMPI PUSH1 0x0 NOT PUSH1 0xF8 DUP9 PUSH1 0x3 SHL AND SHR NOT DUP5 DUP8 ADD CALLDATALOAD AND DUP2 SSTORE JUMPDEST POP POP PUSH1 0x1 DUP6 PUSH1 0x1 SHL ADD DUP4 SSTORE JUMPDEST POP POP POP POP POP JUMP JUMPDEST PUSH1 0x20 DUP2 MSTORE DUP2 PUSH1 0x20 DUP3 ADD MSTORE DUP2 DUP4 PUSH1 0x40 DUP4 ADD CALLDATACOPY PUSH1 0x0 DUP2 DUP4 ADD PUSH1 0x40 SWAP1 DUP2 ADD SWAP2 SWAP1 SWAP2 MSTORE PUSH1 0x1F SWAP1 SWAP3 ADD PUSH1 0x1F NOT AND ADD ADD SWAP2 SWAP1 POP JUMP JUMPDEST DUP2 DUP2 SUB DUP2 DUP2 GT ISZERO PUSH2 0x25E JUMPI PUSH4 0x4E487B71 PUSH1 0xE0 SHL PUSH1 0x0 MSTORE PUSH1 0x11 PUSH1 0x4 MSTORE PUSH1 0x24 PUSH1 0x0 REVERT JUMPDEST PUSH1 0x0 DUP1 DUP6 DUP6 GT ISZERO PUSH2 0xA19 JUMPI PUSH1 0x0 DUP1 REVERT JUMPDEST DUP4 DUP7 GT ISZERO PUSH2 0xA26 JUMPI PUSH1 0x0 DUP1 REVERT JUMPDEST POP POP DUP3 ADD SWAP4 SWAP2 SWAP1 SWAP3 SUB SWAP2 POP JUMP JUMPDEST PUSH12 0xFFFFFFFFFFFFFFFFFFFFFFFF NOT DUP2 CALLDATALOAD DUP2 DUP2 AND SWAP2 PUSH1 0x14 DUP6 LT ISZERO PUSH2 0xA60 JUMPI DUP1 DUP2 DUP7 PUSH1 0x14 SUB PUSH1 0x3 SHL SHL DUP4 AND AND SWAP3 POP JUMPDEST POP POP SWAP3 SWAP2 POP POP JUMP INVALID LOG2 PUSH5 0x6970667358 0x22 SLT KECCAK256 0xAB PUSH24 0x28F0630307092A62A8A6809A6B5BF242D5BB2B13A126D785 PUSH8 0x8AFBFC60D64736F PUSH13 0x63430008140033000000000000 "},"methodIdentifiers":{"getClaim(address,bytes32)":"4361443f","getProfileCID(address)":"de8b05be","hasProfile(address)":"a787c80b","isTrustedForwarder(address)":"572b6c05","registerIdentity(string)":"92849ca4","removeClaim(address,bytes32)":"a1c8ca7e","setClaim(address,bytes32,bytes32)":"9918925d","setProfileCID(address,string)":"46a59e5f","trustedForwarder()":"7da0a877"}}}}}