{"contracts/Forwarder.sol":{"Forwarder":{"abi":[{"inputs":[],"stateMutability":"nonpayable","type":"constructor"},{"inputs":[{"internalType":"address","name":"account","type":"address"}],"name":"AddressInsufficientBalance","type":"error"},{"inputs":[{"internalType":"uint48","name":"deadline","type":"uint48"}],"name":"ERC2771ForwarderExpiredRequest","type":"error"},{"inputs":[{"internalType":"address","name":"signer","type":"address"},{"internalType":"address","name":"from","type":"address"}],"name":"ERC2771ForwarderInvalidSigner","type":"error"},{"inputs":[{"internalType":"uint256","name":"requestedValue","type":"uint256"},{"internalType":"uint256","name":"msgValue","type":"uint256"}],"name":"ERC2771ForwarderMismatchedValue","type":"error"},{"inputs":[{"internalType":"address","name":"target","type":"address"},{"internalType":"address","name":"forwarder","type":"address"}],"name":"ERC2771UntrustfulTarget","type":"error"},{"inputs":[],"name":"FailedInnerCall","type":"error"},{"inputs":[{"internalType":"address","name":"account","type":"address"},{"internalType":"uint256","name":"currentNonce","type":"uint256"}],"name":"InvalidAccountNonce","type":"error"},{"inputs":[],"name":"InvalidShortString","type":"error"},{"inputs":[{"internalType":"string","name":"str","type":"string"}],"name":"StringTooLong","type":"error"},{"anonymous":false,"inputs":[],"name":"EIP712DomainChanged","type":"event"},{"anonymous":false,"inputs":[{"indexed":true,"internalType":"address","name":"signer","type":"address"},{"indexed":false,"internalType":"uint256","name":"nonce","type":"uint256"},{"indexed":false,"internalType":"bool","name":"success","type":"bool"}],"name":"ExecutedForwardRequest","type":"event"},{"inputs":[],"name":"eip712Domain","outputs":[{"internalType":"bytes1","name":"fields","type":"bytes1"},{"internalType":"string","name":"name","type":"string"},{"internalType":"string","name":"version","type":"string"},{"internalType":"uint256","name":"chainId","type":"uint256"},{"internalType":"address","name":"verifyingContract","type":"address"},{"internalType":"bytes32","name":"salt","type":"bytes32"},{"internalType":"uint256[]","name":"extensions","type":"uint256[]"}],"stateMutability":"view","type":"function"},{"inputs":[{"components":[{"internalType":"address","name":"from","type":"address"},{"internalType":"address","name":"to","type":"address"},{"internalType":"uint256","name":"value","type":"uint256"},{"internalType":"uint256","name":"gas","type":"uint256"},{"internalType":"uint48","name":"deadline","type":"uint48"},{"internalType":"bytes","name":"data","type":"bytes"},{"internalType":"bytes","name":"signature","type":"bytes"}],"internalType":"struct ERC2771Forwarder.ForwardRequestData","name":"request","type":"tuple"}],"name":"execute","outputs":[],"stateMutability":"payable","type":"function"},{"inputs":[{"components":[{"internalType":"address","name":"from","type":"address"},{"internalType":"address","name":"to","type":"address"},{"internalType":"uint256","name":"value","type":"uint256"},{"internalType":"uint256","name":"gas","type":"uint256"},{"internalType":"uint48","name":"deadline","type":"uint48"},{"internalType":"bytes","name":"data","type":"bytes"},{"internalType":"bytes","name":"signature","type":"bytes"}],"internalType":"struct ERC2771Forwarder.ForwardRequestData[]","name":"requests","type":"tuple[]"},{"internalType":"address payable","name":"refundReceiver","type":"address"}],"name":"executeBatch","outputs":[],"stateMutability":"payable","type":"function"},{"inputs":[{"internalType":"address","name":"owner","type":"address"}],"name":"nonces","outputs":[{"internalType":"uint256","name":"","type":"uint256"}],"stateMutability":"view","type":"function"},{"inputs":[{"components":[{"internalType":"address","name":"from","type":"address"},{"internalType":"address","name":"to","type":"address"},{"internalType":"uint256","name":"value","type":"uint256"},{"internalType":"uint256","name":"gas","type":"uint256"},{"internalType":"uint48","name":"deadline","type":"uint48"},{"internalType":"bytes","name":"data","type":"bytes"},{"internalType":"bytes","name":"signature","type":"bytes"}],"internalType":"struct ERC2771Forwarder.ForwardRequestData","name":"request","type":"tuple"}],"name":"verify","outputs":[{"internalType":"bool","name":"","type":"bool"}],"stateMutability":"view","type":"function"}],"evm":{"bytecode":{"linkReferences":{},"object":"6101606040523480156200001257600080fd5b5060408051808201825260098152682337b93bb0b93232b960b91b602080830191909152825180840190935260018352603160f81b908301529081906200005b8260006200010a565b610120526200006c8160016200010a565b61014052815160208084019190912060e052815190820120610100524660a052620000fa60e05161010051604080517f8b73c3c69bb8fe3d512ecc4cf759cc79239f7b179b0ffacaa9a75d522b39400f60208201529081019290925260608201524660808201523060a082015260009060c00160405160208183030381529060405280519060200120905090565b60805250503060c0525062000375565b60006020835110156200012a57620001228362000143565b90506200013d565b8162000137848262000234565b5060ff90505b92915050565b600080829050601f815111156200017a578260405163305a27a960e01b815260040162000171919062000300565b60405180910390fd5b8051620001878262000350565b179392505050565b634e487b7160e01b600052604160045260246000fd5b600181811c90821680620001ba57607f821691505b602082108103620001db57634e487b7160e01b600052602260045260246000fd5b50919050565b601f8211156200022f57600081815260208120601f850160051c810160208610156200020a5750805b601f850160051c820191505b818110156200022b5782815560010162000216565b5050505b505050565b81516001600160401b038111156200025057620002506200018f565b6200026881620002618454620001a5565b84620001e1565b602080601f831160018114620002a05760008415620002875750858301515b600019600386901b1c1916600185901b1785556200022b565b600085815260208120601f198616915b82811015620002d157888601518255948401946001909101908401620002b0565b5085821015620002f05787850151600019600388901b60f8161c191681555b5050505050600190811b01905550565b600060208083528351808285015260005b818110156200032f5785810183015185820160400152820162000311565b506000604082860101526040601f19601f8301168501019250505092915050565b80516020808301519190811015620001db5760001960209190910360031b1b16919050565b60805160a05160c05160e051610100516101205161014051610f95620003d060003960006103b80152600061038601526000610aab01526000610a83015260006109de01526000610a0801526000610a320152610f956000f3fe60806040526004361061004a5760003560e01c806319d8d38c1461004f5780637ecebe001461008457806384b0196e146100c8578063ccf96b4a146100f0578063df905caf14610105575b600080fd5b34801561005b57600080fd5b5061006f61006a366004610bf3565b610118565b60405190151581526020015b60405180910390f35b34801561009057600080fd5b506100ba61009f366004610c4a565b6001600160a01b031660009081526002602052604090205490565b60405190815260200161007b565b3480156100d457600080fd5b506100dd61014a565b60405161007b9796959493929190610cad565b6101036100fe366004610d43565b610190565b005b610103610113366004610bf3565b61029f565b600080600080610127856102fa565b509250925092508280156101385750815b80156101415750805b95945050505050565b60006060806000806000606061015e61037f565b6101666103b1565b60408051600080825260208201909252600f60f81b9b939a50919850469750309650945092509050565b6001600160a01b03811615600080805b85811015610258578686828181106101ba576101ba610dc9565b90506020028101906101cc9190610ddf565b6101da906040013584610e15565b9250600061020b8888848181106101f3576101f3610dc9565b90506020028101906102059190610ddf565b866103de565b9050806102475787878381811061022457610224610dc9565b90506020028101906102369190610ddf565b610244906040013584610e15565b92505b5061025181610e28565b90506101a0565b50348214610287576040516370647f7960e01b8152600481018390523460248201526044015b60405180910390fd5b80156102975761029784826105c1565b505050505050565b806040013534146102cf57604080516370647f7960e01b815290820135600482015234602482015260440161027e565b6102da8160016103de565b6102f757604051630a12f52160e11b815260040160405180910390fd5b50565b60008060008060008061030c8761065d565b90925090506103296103246040890160208a01610c4a565b6107d2565b4261033a60a08a0160808b01610e41565b65ffffffffffff16101583801561036e575061035960208a018a610c4a565b6001600160a01b0316836001600160a01b0316145b919750955093509150509193509193565b60606103ac7f0000000000000000000000000000000000000000000000000000000000000000600061084f565b905090565b60606103ac7f0000000000000000000000000000000000000000000000000000000000000000600161084f565b60008060008060006103ef876102fa565b935093509350935085156104b5578361043d576104126040880160208901610c4a565b60405163d2650cd160e01b81526001600160a01b03909116600482015230602482015260440161027e565b826104765761045260a0880160808901610e41565b604051634a777ac560e11b815265ffffffffffff909116600482015260240161027e565b816104b557806104896020890189610c4a565b604051636422d02b60e11b81526001600160a01b0392831660048201529116602482015260440161027e565b8380156104bf5750815b80156104c85750825b156105b7576001600160a01b038116600090815260026020526040812080546001810190915590506060880135600061050760408b0160208c01610c4a565b905060408a0135600061051d60a08d018d610e69565b61052a60208f018f610c4a565b60405160200161053c93929190610eb7565b6040516020818303038152906040529050600080600083516020850186888af19a505a905061056b818e6108fc565b604080518781528c151560208201526001600160a01b038916917f842fb24a83793558587a3dab2be7674da4a51d09c5542d6dd354e5d0ea70813c910160405180910390a25050505050505b5050505092915050565b804710156105e45760405163cd78605960e01b815230600482015260240161027e565b6000826001600160a01b03168260405160006040518083038185875af1925050503d8060008114610631576040519150601f19603f3d011682016040523d82523d6000602084013e610636565b606091505b505090508061065857604051630a12f52160e11b815260040160405180910390fd5b505050565b60008080806107ac61067260c0870187610e69565b8080601f0160208091040260200160405190810160405280939291908181526020018383808284376000920191909152506107a692507f7f96328b83274ebc7c1cf4f7a3abda602b51a78b7fa1d86a2ce353d75e587cac91506106da905060208a018a610c4a565b6106ea60408b0160208c01610c4a565b60408b013560608c013561070461009f60208f018f610c4a565b8d60800160208101906107179190610e41565b8e8060a001906107279190610e69565b604051610735929190610edd565b6040805191829003822060208301999099526001600160a01b0397881690820152959094166060860152608085019290925260a084015260c083015265ffffffffffff1660e08201526101008101919091526101200160405160208183030381529060405280519060200120610918565b90610945565b50909250905060008160038111156107c6576107c6610eed565b14959194509092505050565b604051306024820152600090819060440160408051601f19818403018152919052602080820180516001600160e01b031663572b6c0560e01b17815282519293506000928392839290918391895afa92503d91506000519050828015610839575060208210155b80156108455750600081115b9695505050505050565b606060ff83146108695761086283610992565b90506108f6565b81805461087590610f03565b80601f01602080910402602001604051908101604052809291908181526020018280546108a190610f03565b80156108ee5780601f106108c3576101008083540402835291602001916108ee565b820191906000526020600020905b8154815290600101906020018083116108d157829003601f168201915b505050505090505b92915050565b61090b603f6060830135610f3d565b82101561091457fe5b5050565b60006108f66109256109d1565b8360405161190160f01b8152600281019290925260228201526042902090565b6000806000835160410361097f5760208401516040850151606086015160001a61097188828585610afc565b95509550955050505061098b565b50508151600091506002905b9250925092565b6060600061099f83610bcb565b604080516020808252818301909252919250600091906020820181803683375050509182525060208101929092525090565b6000306001600160a01b037f000000000000000000000000000000000000000000000000000000000000000016148015610a2a57507f000000000000000000000000000000000000000000000000000000000000000046145b15610a5457507f000000000000000000000000000000000000000000000000000000000000000090565b6103ac604080517f8b73c3c69bb8fe3d512ecc4cf759cc79239f7b179b0ffacaa9a75d522b39400f60208201527f0000000000000000000000000000000000000000000000000000000000000000918101919091527f000000000000000000000000000000000000000000000000000000000000000060608201524660808201523060a082015260009060c00160405160208183030381529060405280519060200120905090565b600080807f7fffffffffffffffffffffffffffffff5d576e7357a4501ddfe92f46681b20a0841115610b375750600091506003905082610bc1565b604080516000808252602082018084528a905260ff891692820192909252606081018790526080810186905260019060a0016020604051602081039080840390855afa158015610b8b573d6000803e3d6000fd5b5050604051601f1901519150506001600160a01b038116610bb757506000925060019150829050610bc1565b9250600091508190505b9450945094915050565b600060ff8216601f8111156108f657604051632cd44ac360e21b815260040160405180910390fd5b600060208284031215610c0557600080fd5b813567ffffffffffffffff811115610c1c57600080fd5b820160e08185031215610c2e57600080fd5b9392505050565b6001600160a01b03811681146102f757600080fd5b600060208284031215610c5c57600080fd5b8135610c2e81610c35565b6000815180845260005b81811015610c8d57602081850181015186830182015201610c71565b506000602082860101526020601f19601f83011685010191505092915050565b60ff60f81b881681526000602060e081840152610ccd60e084018a610c67565b8381036040850152610cdf818a610c67565b606085018990526001600160a01b038816608086015260a0850187905284810360c0860152855180825283870192509083019060005b81811015610d3157835183529284019291840191600101610d15565b50909c9b505050505050505050505050565b600080600060408486031215610d5857600080fd5b833567ffffffffffffffff80821115610d7057600080fd5b818601915086601f830112610d8457600080fd5b813581811115610d9357600080fd5b8760208260051b8501011115610da857600080fd5b60209283019550935050840135610dbe81610c35565b809150509250925092565b634e487b7160e01b600052603260045260246000fd5b6000823560de19833603018112610df557600080fd5b9190910192915050565b634e487b7160e01b600052601160045260246000fd5b808201808211156108f6576108f6610dff565b600060018201610e3a57610e3a610dff565b5060010190565b600060208284031215610e5357600080fd5b813565ffffffffffff81168114610c2e57600080fd5b6000808335601e19843603018112610e8057600080fd5b83018035915067ffffffffffffffff821115610e9b57600080fd5b602001915036819003821315610eb057600080fd5b9250929050565b8284823760609190911b6bffffffffffffffffffffffff19169101908152601401919050565b8183823760009101908152919050565b634e487b7160e01b600052602160045260246000fd5b600181811c90821680610f1757607f821691505b602082108103610f3757634e487b7160e01b600052602260045260246000fd5b50919050565b600082610f5a57634e487b7160e01b600052601260045260246000fd5b50049056fea2646970667358221220173d523e49cbaa00ecdd9124619ae579a3ce9602d262efc19723ada683df822a64736f6c63430008140033","opcodes":"PUSH2 0x160 PUSH1 0x40 MSTORE CALLVALUE DUP1 ISZERO PUSH3 0x12 JUMPI PUSH1 0x0 DUP1 REVERT JUMPDEST POP PUSH1 0x40 DUP1 MLOAD DUP1 DUP3 ADD DUP3 MSTORE PUSH1 0x9 DUP2 MSTORE PUSH9 0x2337B93BB0B93232B9 PUSH1 0xB9 SHL PUSH1 0x20 DUP1 DUP4 ADD SWAP2 SWAP1 SWAP2 MSTORE DUP3 MLOAD DUP1 DUP5 ADD SWAP1 SWAP4 MSTORE PUSH1 0x1 DUP4 MSTORE PUSH1 0x31 PUSH1 0xF8 SHL SWAP1 DUP4 ADD MSTORE SWAP1 DUP2 SWAP1 PUSH3 0x5B DUP3 PUSH1 0x0 PUSH3 0x10A JUMP JUMPDEST PUSH2 0x120 MSTORE PUSH3 0x6C DUP2 PUSH1 0x1 PUSH3 0x10A JUMP JUMPDEST PUSH2 0x140 MSTORE DUP2 MLOAD PUSH1 0x20 DUP1 DUP5 ADD SWAP2 SWAP1 SWAP2 KECCAK256 PUSH1 0xE0 MSTORE DUP2 MLOAD SWAP1 DUP3 ADD KECCAK256 PUSH2 0x100 MSTORE CHAINID PUSH1 0xA0 MSTORE PUSH3 0xFA PUSH1 0xE0 MLOAD PUSH2 0x100 MLOAD PUSH1 0x40 DUP1 MLOAD PUSH32 0x8B73C3C69BB8FE3D512ECC4CF759CC79239F7B179B0FFACAA9A75D522B39400F PUSH1 0x20 DUP3 ADD MSTORE SWAP1 DUP2 ADD SWAP3 SWAP1 SWAP3 MSTORE PUSH1 0x60 DUP3 ADD MSTORE CHAINID PUSH1 0x80 DUP3 ADD MSTORE ADDRESS PUSH1 0xA0 DUP3 ADD MSTORE PUSH1 0x0 SWAP1 PUSH1 0xC0 ADD PUSH1 0x40 MLOAD PUSH1 0x20 DUP2 DUP4 SUB SUB DUP2 MSTORE SWAP1 PUSH1 0x40 MSTORE DUP1 MLOAD SWAP1 PUSH1 0x20 ADD KECCAK256 SWAP1 POP SWAP1 JUMP JUMPDEST PUSH1 0x80 MSTORE POP POP ADDRESS PUSH1 0xC0 MSTORE POP PUSH3 0x375 JUMP JUMPDEST PUSH1 0x0 PUSH1 0x20 DUP4 MLOAD LT ISZERO PUSH3 0x12A JUMPI PUSH3 0x122 DUP4 PUSH3 0x143 JUMP JUMPDEST SWAP1 POP PUSH3 0x13D JUMP JUMPDEST DUP2 PUSH3 0x137 DUP5 DUP3 PUSH3 0x234 JUMP JUMPDEST POP PUSH1 0xFF SWAP1 POP JUMPDEST SWAP3 SWAP2 POP POP JUMP JUMPDEST PUSH1 0x0 DUP1 DUP3 SWAP1 POP PUSH1 0x1F DUP2 MLOAD GT ISZERO PUSH3 0x17A JUMPI DUP3 PUSH1 0x40 MLOAD PUSH4 0x305A27A9 PUSH1 0xE0 SHL DUP2 MSTORE PUSH1 0x4 ADD PUSH3 0x171 SWAP2 SWAP1 PUSH3 0x300 JUMP JUMPDEST PUSH1 0x40 MLOAD DUP1 SWAP2 SUB SWAP1 REVERT JUMPDEST DUP1 MLOAD PUSH3 0x187 DUP3 PUSH3 0x350 JUMP JUMPDEST OR SWAP4 SWAP3 POP POP POP JUMP JUMPDEST PUSH4 0x4E487B71 PUSH1 0xE0 SHL PUSH1 0x0 MSTORE PUSH1 0x41 PUSH1 0x4 MSTORE PUSH1 0x24 PUSH1 0x0 REVERT JUMPDEST PUSH1 0x1 DUP2 DUP2 SHR SWAP1 DUP3 AND DUP1 PUSH3 0x1BA JUMPI PUSH1 0x7F DUP3 AND SWAP2 POP JUMPDEST PUSH1 0x20 DUP3 LT DUP2 SUB PUSH3 0x1DB JUMPI PUSH4 0x4E487B71 PUSH1 0xE0 SHL PUSH1 0x0 MSTORE PUSH1 0x22 PUSH1 0x4 MSTORE PUSH1 0x24 PUSH1 0x0 REVERT JUMPDEST POP SWAP2 SWAP1 POP JUMP JUMPDEST PUSH1 0x1F DUP3 GT ISZERO PUSH3 0x22F JUMPI PUSH1 0x0 DUP2 DUP2 MSTORE PUSH1 0x20 DUP2 KECCAK256 PUSH1 0x1F DUP6 ADD PUSH1 0x5 SHR DUP2 ADD PUSH1 0x20 DUP7 LT ISZERO PUSH3 0x20A JUMPI POP DUP1 JUMPDEST PUSH1 0x1F DUP6 ADD PUSH1 0x5 SHR DUP3 ADD SWAP2 POP JUMPDEST DUP2 DUP2 LT ISZERO PUSH3 0x22B JUMPI DUP3 DUP2 SSTORE PUSH1 0x1 ADD PUSH3 0x216 JUMP JUMPDEST POP POP POP JUMPDEST POP POP POP JUMP JUMPDEST DUP2 MLOAD PUSH1 0x1 PUSH1 0x1 PUSH1 0x40 SHL SUB DUP2 GT ISZERO PUSH3 0x250 JUMPI PUSH3 0x250 PUSH3 0x18F JUMP JUMPDEST PUSH3 0x268 DUP2 PUSH3 0x261 DUP5 SLOAD PUSH3 0x1A5 JUMP JUMPDEST DUP5 PUSH3 0x1E1 JUMP JUMPDEST PUSH1 0x20 DUP1 PUSH1 0x1F DUP4 GT PUSH1 0x1 DUP2 EQ PUSH3 0x2A0 JUMPI PUSH1 0x0 DUP5 ISZERO PUSH3 0x287 JUMPI POP DUP6 DUP4 ADD MLOAD JUMPDEST PUSH1 0x0 NOT PUSH1 0x3 DUP7 SWAP1 SHL SHR NOT AND PUSH1 0x1 DUP6 SWAP1 SHL OR DUP6 SSTORE PUSH3 0x22B JUMP JUMPDEST PUSH1 0x0 DUP6 DUP2 MSTORE PUSH1 0x20 DUP2 KECCAK256 PUSH1 0x1F NOT DUP7 AND SWAP2 JUMPDEST DUP3 DUP2 LT ISZERO PUSH3 0x2D1 JUMPI DUP9 DUP7 ADD MLOAD DUP3 SSTORE SWAP5 DUP5 ADD SWAP5 PUSH1 0x1 SWAP1 SWAP2 ADD SWAP1 DUP5 ADD PUSH3 0x2B0 JUMP JUMPDEST POP DUP6 DUP3 LT ISZERO PUSH3 0x2F0 JUMPI DUP8 DUP6 ADD MLOAD PUSH1 0x0 NOT PUSH1 0x3 DUP9 SWAP1 SHL PUSH1 0xF8 AND SHR NOT AND DUP2 SSTORE JUMPDEST POP POP POP POP POP PUSH1 0x1 SWAP1 DUP2 SHL ADD SWAP1 SSTORE POP JUMP JUMPDEST PUSH1 0x0 PUSH1 0x20 DUP1 DUP4 MSTORE DUP4 MLOAD DUP1 DUP3 DUP6 ADD MSTORE PUSH1 0x0 JUMPDEST DUP2 DUP2 LT ISZERO PUSH3 0x32F JUMPI DUP6 DUP2 ADD DUP4 ADD MLOAD DUP6 DUP3 ADD PUSH1 0x40 ADD MSTORE DUP3 ADD PUSH3 0x311 JUMP JUMPDEST POP PUSH1 0x0 PUSH1 0x40 DUP3 DUP7 ADD ADD MSTORE PUSH1 0x40 PUSH1 0x1F NOT PUSH1 0x1F DUP4 ADD AND DUP6 ADD ADD SWAP3 POP POP POP SWAP3 SWAP2 POP POP JUMP JUMPDEST DUP1 MLOAD PUSH1 0x20 DUP1 DUP4 ADD MLOAD SWAP2 SWAP1 DUP2 LT ISZERO PUSH3 0x1DB JUMPI PUSH1 0x0 NOT PUSH1 0x20 SWAP2 SWAP1 SWAP2 SUB PUSH1 0x3 SHL SHL AND SWAP2 SWAP1 POP JUMP JUMPDEST PUSH1 0x80 MLOAD PUSH1 0xA0 MLOAD PUSH1 0xC0 MLOAD PUSH1 0xE0 MLOAD PUSH2 0x100 MLOAD PUSH2 0x120 MLOAD PUSH2 0x140 MLOAD PUSH2 0xF95 PUSH3 0x3D0 PUSH1 0x0 CODECOPY PUSH1 0x0 PUSH2 0x3B8 ADD MSTORE PUSH1 0x0 PUSH2 0x386 ADD MSTORE PUSH1 0x0 PUSH2 0xAAB ADD MSTORE PUSH1 0x0 PUSH2 0xA83 ADD MSTORE PUSH1 0x0 PUSH2 0x9DE ADD MSTORE PUSH1 0x0 PUSH2 0xA08 ADD MSTORE PUSH1 0x0 PUSH2 0xA32 ADD MSTORE PUSH2 0xF95 PUSH1 0x0 RETURN INVALID PUSH1 0x80 PUSH1 0x40 MSTORE PUSH1 0x4 CALLDATASIZE LT PUSH2 0x4A JUMPI PUSH1 0x0 CALLDATALOAD PUSH1 0xE0 SHR DUP1 PUSH4 0x19D8D38C EQ PUSH2 0x4F JUMPI DUP1 PUSH4 0x7ECEBE00 EQ PUSH2 0x84 JUMPI DUP1 PUSH4 0x84B0196E EQ PUSH2 0xC8 JUMPI DUP1 PUSH4 0xCCF96B4A EQ PUSH2 0xF0 JUMPI DUP1 PUSH4 0xDF905CAF EQ PUSH2 0x105 JUMPI JUMPDEST PUSH1 0x0 DUP1 REVERT JUMPDEST CALLVALUE DUP1 ISZERO PUSH2 0x5B JUMPI PUSH1 0x0 DUP1 REVERT JUMPDEST POP PUSH2 0x6F PUSH2 0x6A CALLDATASIZE PUSH1 0x4 PUSH2 0xBF3 JUMP JUMPDEST PUSH2 0x118 JUMP JUMPDEST PUSH1 0x40 MLOAD SWAP1 ISZERO ISZERO DUP2 MSTORE PUSH1 0x20 ADD JUMPDEST PUSH1 0x40 MLOAD DUP1 SWAP2 SUB SWAP1 RETURN JUMPDEST CALLVALUE DUP1 ISZERO PUSH2 0x90 JUMPI PUSH1 0x0 DUP1 REVERT JUMPDEST POP PUSH2 0xBA PUSH2 0x9F CALLDATASIZE PUSH1 0x4 PUSH2 0xC4A JUMP JUMPDEST PUSH1 0x1 PUSH1 0x1 PUSH1 0xA0 SHL SUB AND PUSH1 0x0 SWAP1 DUP2 MSTORE PUSH1 0x2 PUSH1 0x20 MSTORE PUSH1 0x40 SWAP1 KECCAK256 SLOAD SWAP1 JUMP JUMPDEST PUSH1 0x40 MLOAD SWAP1 DUP2 MSTORE PUSH1 0x20 ADD PUSH2 0x7B JUMP JUMPDEST CALLVALUE DUP1 ISZERO PUSH2 0xD4 JUMPI PUSH1 0x0 DUP1 REVERT JUMPDEST POP PUSH2 0xDD PUSH2 0x14A JUMP JUMPDEST PUSH1 0x40 MLOAD PUSH2 0x7B SWAP8 SWAP7 SWAP6 SWAP5 SWAP4 SWAP3 SWAP2 SWAP1 PUSH2 0xCAD JUMP JUMPDEST PUSH2 0x103 PUSH2 0xFE CALLDATASIZE PUSH1 0x4 PUSH2 0xD43 JUMP JUMPDEST PUSH2 0x190 JUMP JUMPDEST STOP JUMPDEST PUSH2 0x103 PUSH2 0x113 CALLDATASIZE PUSH1 0x4 PUSH2 0xBF3 JUMP JUMPDEST PUSH2 0x29F JUMP JUMPDEST PUSH1 0x0 DUP1 PUSH1 0x0 DUP1 PUSH2 0x127 DUP6 PUSH2 0x2FA JUMP JUMPDEST POP SWAP3 POP SWAP3 POP SWAP3 POP DUP3 DUP1 ISZERO PUSH2 0x138 JUMPI POP DUP2 JUMPDEST DUP1 ISZERO PUSH2 0x141 JUMPI POP DUP1 JUMPDEST SWAP6 SWAP5 POP POP POP POP POP JUMP JUMPDEST PUSH1 0x0 PUSH1 0x60 DUP1 PUSH1 0x0 DUP1 PUSH1 0x0 PUSH1 0x60 PUSH2 0x15E PUSH2 0x37F JUMP JUMPDEST PUSH2 0x166 PUSH2 0x3B1 JUMP JUMPDEST PUSH1 0x40 DUP1 MLOAD PUSH1 0x0 DUP1 DUP3 MSTORE PUSH1 0x20 DUP3 ADD SWAP1 SWAP3 MSTORE PUSH1 0xF PUSH1 0xF8 SHL SWAP12 SWAP4 SWAP11 POP SWAP2 SWAP9 POP CHAINID SWAP8 POP ADDRESS SWAP7 POP SWAP5 POP SWAP3 POP SWAP1 POP JUMP JUMPDEST PUSH1 0x1 PUSH1 0x1 PUSH1 0xA0 SHL SUB DUP2 AND ISZERO PUSH1 0x0 DUP1 DUP1 JUMPDEST DUP6 DUP2 LT ISZERO PUSH2 0x258 JUMPI DUP7 DUP7 DUP3 DUP2 DUP2 LT PUSH2 0x1BA JUMPI PUSH2 0x1BA PUSH2 0xDC9 JUMP JUMPDEST SWAP1 POP PUSH1 0x20 MUL DUP2 ADD SWAP1 PUSH2 0x1CC SWAP2 SWAP1 PUSH2 0xDDF JUMP JUMPDEST PUSH2 0x1DA SWAP1 PUSH1 0x40 ADD CALLDATALOAD DUP5 PUSH2 0xE15 JUMP JUMPDEST SWAP3 POP PUSH1 0x0 PUSH2 0x20B DUP9 DUP9 DUP5 DUP2 DUP2 LT PUSH2 0x1F3 JUMPI PUSH2 0x1F3 PUSH2 0xDC9 JUMP JUMPDEST SWAP1 POP PUSH1 0x20 MUL DUP2 ADD SWAP1 PUSH2 0x205 SWAP2 SWAP1 PUSH2 0xDDF JUMP JUMPDEST DUP7 PUSH2 0x3DE JUMP JUMPDEST SWAP1 POP DUP1 PUSH2 0x247 JUMPI DUP8 DUP8 DUP4 DUP2 DUP2 LT PUSH2 0x224 JUMPI PUSH2 0x224 PUSH2 0xDC9 JUMP JUMPDEST SWAP1 POP PUSH1 0x20 MUL DUP2 ADD SWAP1 PUSH2 0x236 SWAP2 SWAP1 PUSH2 0xDDF JUMP JUMPDEST PUSH2 0x244 SWAP1 PUSH1 0x40 ADD CALLDATALOAD DUP5 PUSH2 0xE15 JUMP JUMPDEST SWAP3 POP JUMPDEST POP PUSH2 0x251 DUP2 PUSH2 0xE28 JUMP JUMPDEST SWAP1 POP PUSH2 0x1A0 JUMP JUMPDEST POP CALLVALUE DUP3 EQ PUSH2 0x287 JUMPI PUSH1 0x40 MLOAD PUSH4 0x70647F79 PUSH1 0xE0 SHL DUP2 MSTORE PUSH1 0x4 DUP2 ADD DUP4 SWAP1 MSTORE CALLVALUE PUSH1 0x24 DUP3 ADD MSTORE PUSH1 0x44 ADD JUMPDEST PUSH1 0x40 MLOAD DUP1 SWAP2 SUB SWAP1 REVERT JUMPDEST DUP1 ISZERO PUSH2 0x297 JUMPI PUSH2 0x297 DUP5 DUP3 PUSH2 0x5C1 JUMP JUMPDEST POP POP POP POP POP POP JUMP JUMPDEST DUP1 PUSH1 0x40 ADD CALLDATALOAD CALLVALUE EQ PUSH2 0x2CF JUMPI PUSH1 0x40 DUP1 MLOAD PUSH4 0x70647F79 PUSH1 0xE0 SHL DUP2 MSTORE SWAP1 DUP3 ADD CALLDATALOAD PUSH1 0x4 DUP3 ADD MSTORE CALLVALUE PUSH1 0x24 DUP3 ADD MSTORE PUSH1 0x44 ADD PUSH2 0x27E JUMP JUMPDEST PUSH2 0x2DA DUP2 PUSH1 0x1 PUSH2 0x3DE JUMP JUMPDEST PUSH2 0x2F7 JUMPI PUSH1 0x40 MLOAD PUSH4 0xA12F521 PUSH1 0xE1 SHL DUP2 MSTORE PUSH1 0x4 ADD PUSH1 0x40 MLOAD DUP1 SWAP2 SUB SWAP1 REVERT JUMPDEST POP JUMP JUMPDEST PUSH1 0x0 DUP1 PUSH1 0x0 DUP1 PUSH1 0x0 DUP1 PUSH2 0x30C DUP8 PUSH2 0x65D JUMP JUMPDEST SWAP1 SWAP3 POP SWAP1 POP PUSH2 0x329 PUSH2 0x324 PUSH1 0x40 DUP10 ADD PUSH1 0x20 DUP11 ADD PUSH2 0xC4A JUMP JUMPDEST PUSH2 0x7D2 JUMP JUMPDEST TIMESTAMP PUSH2 0x33A PUSH1 0xA0 DUP11 ADD PUSH1 0x80 DUP12 ADD PUSH2 0xE41 JUMP JUMPDEST PUSH6 0xFFFFFFFFFFFF AND LT ISZERO DUP4 DUP1 ISZERO PUSH2 0x36E JUMPI POP PUSH2 0x359 PUSH1 0x20 DUP11 ADD DUP11 PUSH2 0xC4A JUMP JUMPDEST PUSH1 0x1 PUSH1 0x1 PUSH1 0xA0 SHL SUB AND DUP4 PUSH1 0x1 PUSH1 0x1 PUSH1 0xA0 SHL SUB AND EQ JUMPDEST SWAP2 SWAP8 POP SWAP6 POP SWAP4 POP SWAP2 POP POP SWAP2 SWAP4 POP SWAP2 SWAP4 JUMP JUMPDEST PUSH1 0x60 PUSH2 0x3AC PUSH32 0x0 PUSH1 0x0 PUSH2 0x84F JUMP JUMPDEST SWAP1 POP SWAP1 JUMP JUMPDEST PUSH1 0x60 PUSH2 0x3AC PUSH32 0x0 PUSH1 0x1 PUSH2 0x84F JUMP JUMPDEST PUSH1 0x0 DUP1 PUSH1 0x0 DUP1 PUSH1 0x0 PUSH2 0x3EF DUP8 PUSH2 0x2FA JUMP JUMPDEST SWAP4 POP SWAP4 POP SWAP4 POP SWAP4 POP DUP6 ISZERO PUSH2 0x4B5 JUMPI DUP4 PUSH2 0x43D JUMPI PUSH2 0x412 PUSH1 0x40 DUP9 ADD PUSH1 0x20 DUP10 ADD PUSH2 0xC4A JUMP JUMPDEST PUSH1 0x40 MLOAD PUSH4 0xD2650CD1 PUSH1 0xE0 SHL DUP2 MSTORE PUSH1 0x1 PUSH1 0x1 PUSH1 0xA0 SHL SUB SWAP1 SWAP2 AND PUSH1 0x4 DUP3 ADD MSTORE ADDRESS PUSH1 0x24 DUP3 ADD MSTORE PUSH1 0x44 ADD PUSH2 0x27E JUMP JUMPDEST DUP3 PUSH2 0x476 JUMPI PUSH2 0x452 PUSH1 0xA0 DUP9 ADD PUSH1 0x80 DUP10 ADD PUSH2 0xE41 JUMP JUMPDEST PUSH1 0x40 MLOAD PUSH4 0x4A777AC5 PUSH1 0xE1 SHL DUP2 MSTORE PUSH6 0xFFFFFFFFFFFF SWAP1 SWAP2 AND PUSH1 0x4 DUP3 ADD MSTORE PUSH1 0x24 ADD PUSH2 0x27E JUMP JUMPDEST DUP2 PUSH2 0x4B5 JUMPI DUP1 PUSH2 0x489 PUSH1 0x20 DUP10 ADD DUP10 PUSH2 0xC4A JUMP JUMPDEST PUSH1 0x40 MLOAD PUSH4 0x6422D02B PUSH1 0xE1 SHL DUP2 MSTORE PUSH1 0x1 PUSH1 0x1 PUSH1 0xA0 SHL SUB SWAP3 DUP4 AND PUSH1 0x4 DUP3 ADD MSTORE SWAP2 AND PUSH1 0x24 DUP3 ADD MSTORE PUSH1 0x44 ADD PUSH2 0x27E JUMP JUMPDEST DUP4 DUP1 ISZERO PUSH2 0x4BF JUMPI POP DUP2 JUMPDEST DUP1 ISZERO PUSH2 0x4C8 JUMPI POP DUP3 JUMPDEST ISZERO PUSH2 0x5B7 JUMPI PUSH1 0x1 PUSH1 0x1 PUSH1 0xA0 SHL SUB DUP2 AND PUSH1 0x0 SWAP1 DUP2 MSTORE PUSH1 0x2 PUSH1 0x20 MSTORE PUSH1 0x40 DUP2 KECCAK256 DUP1 SLOAD PUSH1 0x1 DUP2 ADD SWAP1 SWAP2 SSTORE SWAP1 POP PUSH1 0x60 DUP9 ADD CALLDATALOAD PUSH1 0x0 PUSH2 0x507 PUSH1 0x40 DUP12 ADD PUSH1 0x20 DUP13 ADD PUSH2 0xC4A JUMP JUMPDEST SWAP1 POP PUSH1 0x40 DUP11 ADD CALLDATALOAD PUSH1 0x0 PUSH2 0x51D PUSH1 0xA0 DUP14 ADD DUP14 PUSH2 0xE69 JUMP JUMPDEST PUSH2 0x52A PUSH1 0x20 DUP16 ADD DUP16 PUSH2 0xC4A JUMP JUMPDEST PUSH1 0x40 MLOAD PUSH1 0x20 ADD PUSH2 0x53C SWAP4 SWAP3 SWAP2 SWAP1 PUSH2 0xEB7 JUMP JUMPDEST PUSH1 0x40 MLOAD PUSH1 0x20 DUP2 DUP4 SUB SUB DUP2 MSTORE SWAP1 PUSH1 0x40 MSTORE SWAP1 POP PUSH1 0x0 DUP1 PUSH1 0x0 DUP4 MLOAD PUSH1 0x20 DUP6 ADD DUP7 DUP9 DUP11 CALL SWAP11 POP GAS SWAP1 POP PUSH2 0x56B DUP2 DUP15 PUSH2 0x8FC JUMP JUMPDEST PUSH1 0x40 DUP1 MLOAD DUP8 DUP2 MSTORE DUP13 ISZERO ISZERO PUSH1 0x20 DUP3 ADD MSTORE PUSH1 0x1 PUSH1 0x1 PUSH1 0xA0 SHL SUB DUP10 AND SWAP2 PUSH32 0x842FB24A83793558587A3DAB2BE7674DA4A51D09C5542D6DD354E5D0EA70813C SWAP2 ADD PUSH1 0x40 MLOAD DUP1 SWAP2 SUB SWAP1 LOG2 POP POP POP POP POP POP JUMPDEST POP POP POP POP SWAP3 SWAP2 POP POP JUMP JUMPDEST DUP1 SELFBALANCE LT ISZERO PUSH2 0x5E4 JUMPI PUSH1 0x40 MLOAD PUSH4 0xCD786059 PUSH1 0xE0 SHL DUP2 MSTORE ADDRESS PUSH1 0x4 DUP3 ADD MSTORE PUSH1 0x24 ADD PUSH2 0x27E JUMP JUMPDEST PUSH1 0x0 DUP3 PUSH1 0x1 PUSH1 0x1 PUSH1 0xA0 SHL SUB AND DUP3 PUSH1 0x40 MLOAD PUSH1 0x0 PUSH1 0x40 MLOAD DUP1 DUP4 SUB DUP2 DUP6 DUP8 GAS CALL SWAP3 POP POP POP RETURNDATASIZE DUP1 PUSH1 0x0 DUP2 EQ PUSH2 0x631 JUMPI PUSH1 0x40 MLOAD SWAP2 POP PUSH1 0x1F NOT PUSH1 0x3F RETURNDATASIZE ADD AND DUP3 ADD PUSH1 0x40 MSTORE RETURNDATASIZE DUP3 MSTORE RETURNDATASIZE PUSH1 0x0 PUSH1 0x20 DUP5 ADD RETURNDATACOPY PUSH2 0x636 JUMP JUMPDEST PUSH1 0x60 SWAP2 POP JUMPDEST POP POP SWAP1 POP DUP1 PUSH2 0x658 JUMPI PUSH1 0x40 MLOAD PUSH4 0xA12F521 PUSH1 0xE1 SHL DUP2 MSTORE PUSH1 0x4 ADD PUSH1 0x40 MLOAD DUP1 SWAP2 SUB SWAP1 REVERT JUMPDEST POP POP POP JUMP JUMPDEST PUSH1 0x0 DUP1 DUP1 DUP1 PUSH2 0x7AC PUSH2 0x672 PUSH1 0xC0 DUP8 ADD DUP8 PUSH2 0xE69 JUMP JUMPDEST DUP1 DUP1 PUSH1 0x1F ADD PUSH1 0x20 DUP1 SWAP2 DIV MUL PUSH1 0x20 ADD PUSH1 0x40 MLOAD SWAP1 DUP2 ADD PUSH1 0x40 MSTORE DUP1 SWAP4 SWAP3 SWAP2 SWAP1 DUP2 DUP2 MSTORE PUSH1 0x20 ADD DUP4 DUP4 DUP1 DUP3 DUP5 CALLDATACOPY PUSH1 0x0 SWAP3 ADD SWAP2 SWAP1 SWAP2 MSTORE POP PUSH2 0x7A6 SWAP3 POP PUSH32 0x7F96328B83274EBC7C1CF4F7A3ABDA602B51A78B7FA1D86A2CE353D75E587CAC SWAP2 POP PUSH2 0x6DA SWAP1 POP PUSH1 0x20 DUP11 ADD DUP11 PUSH2 0xC4A JUMP JUMPDEST PUSH2 0x6EA PUSH1 0x40 DUP12 ADD PUSH1 0x20 DUP13 ADD PUSH2 0xC4A JUMP JUMPDEST PUSH1 0x40 DUP12 ADD CALLDATALOAD PUSH1 0x60 DUP13 ADD CALLDATALOAD PUSH2 0x704 PUSH2 0x9F PUSH1 0x20 DUP16 ADD DUP16 PUSH2 0xC4A JUMP JUMPDEST DUP14 PUSH1 0x80 ADD PUSH1 0x20 DUP2 ADD SWAP1 PUSH2 0x717 SWAP2 SWAP1 PUSH2 0xE41 JUMP JUMPDEST DUP15 DUP1 PUSH1 0xA0 ADD SWAP1 PUSH2 0x727 SWAP2 SWAP1 PUSH2 0xE69 JUMP JUMPDEST PUSH1 0x40 MLOAD PUSH2 0x735 SWAP3 SWAP2 SWAP1 PUSH2 0xEDD JUMP JUMPDEST PUSH1 0x40 DUP1 MLOAD SWAP2 DUP3 SWAP1 SUB DUP3 KECCAK256 PUSH1 0x20 DUP4 ADD SWAP10 SWAP1 SWAP10 MSTORE PUSH1 0x1 PUSH1 0x1 PUSH1 0xA0 SHL SUB SWAP8 DUP9 AND SWAP1 DUP3 ADD MSTORE SWAP6 SWAP1 SWAP5 AND PUSH1 0x60 DUP7 ADD MSTORE PUSH1 0x80 DUP6 ADD SWAP3 SWAP1 SWAP3 MSTORE PUSH1 0xA0 DUP5 ADD MSTORE PUSH1 0xC0 DUP4 ADD MSTORE PUSH6 0xFFFFFFFFFFFF AND PUSH1 0xE0 DUP3 ADD MSTORE PUSH2 0x100 DUP2 ADD SWAP2 SWAP1 SWAP2 MSTORE PUSH2 0x120 ADD PUSH1 0x40 MLOAD PUSH1 0x20 DUP2 DUP4 SUB SUB DUP2 MSTORE SWAP1 PUSH1 0x40 MSTORE DUP1 MLOAD SWAP1 PUSH1 0x20 ADD KECCAK256 PUSH2 0x918 JUMP JUMPDEST SWAP1 PUSH2 0x945 JUMP JUMPDEST POP SWAP1 SWAP3 POP SWAP1 POP PUSH1 0x0 DUP2 PUSH1 0x3 DUP2 GT ISZERO PUSH2 0x7C6 JUMPI PUSH2 0x7C6 PUSH2 0xEED JUMP JUMPDEST EQ SWAP6 SWAP2 SWAP5 POP SWAP1 SWAP3 POP POP POP JUMP JUMPDEST PUSH1 0x40 MLOAD ADDRESS PUSH1 0x24 DUP3 ADD MSTORE PUSH1 0x0 SWAP1 DUP2 SWAP1 PUSH1 0x44 ADD PUSH1 0x40 DUP1 MLOAD PUSH1 0x1F NOT DUP2 DUP5 SUB ADD DUP2 MSTORE SWAP2 SWAP1 MSTORE PUSH1 0x20 DUP1 DUP3 ADD DUP1 MLOAD PUSH1 0x1 PUSH1 0x1 PUSH1 0xE0 SHL SUB AND PUSH4 0x572B6C05 PUSH1 0xE0 SHL OR DUP2 MSTORE DUP3 MLOAD SWAP3 SWAP4 POP PUSH1 0x0 SWAP3 DUP4 SWAP3 DUP4 SWAP3 SWAP1 SWAP2 DUP4 SWAP2 DUP10 GAS STATICCALL SWAP3 POP RETURNDATASIZE SWAP2 POP PUSH1 0x0 MLOAD SWAP1 POP DUP3 DUP1 ISZERO PUSH2 0x839 JUMPI POP PUSH1 0x20 DUP3 LT ISZERO JUMPDEST DUP1 ISZERO PUSH2 0x845 JUMPI POP PUSH1 0x0 DUP2 GT JUMPDEST SWAP7 SWAP6 POP POP POP POP POP POP JUMP JUMPDEST PUSH1 0x60 PUSH1 0xFF DUP4 EQ PUSH2 0x869 JUMPI PUSH2 0x862 DUP4 PUSH2 0x992 JUMP JUMPDEST SWAP1 POP PUSH2 0x8F6 JUMP JUMPDEST DUP2 DUP1 SLOAD PUSH2 0x875 SWAP1 PUSH2 0xF03 JUMP JUMPDEST DUP1 PUSH1 0x1F ADD PUSH1 0x20 DUP1 SWAP2 DIV MUL PUSH1 0x20 ADD PUSH1 0x40 MLOAD SWAP1 DUP2 ADD PUSH1 0x40 MSTORE DUP1 SWAP3 SWAP2 SWAP1 DUP2 DUP2 MSTORE PUSH1 0x20 ADD DUP3 DUP1 SLOAD PUSH2 0x8A1 SWAP1 PUSH2 0xF03 JUMP JUMPDEST DUP1 ISZERO PUSH2 0x8EE JUMPI DUP1 PUSH1 0x1F LT PUSH2 0x8C3 JUMPI PUSH2 0x100 DUP1 DUP4 SLOAD DIV MUL DUP4 MSTORE SWAP2 PUSH1 0x20 ADD SWAP2 PUSH2 0x8EE JUMP JUMPDEST DUP3 ADD SWAP2 SWAP1 PUSH1 0x0 MSTORE PUSH1 0x20 PUSH1 0x0 KECCAK256 SWAP1 JUMPDEST DUP2 SLOAD DUP2 MSTORE SWAP1 PUSH1 0x1 ADD SWAP1 PUSH1 0x20 ADD DUP1 DUP4 GT PUSH2 0x8D1 JUMPI DUP3 SWAP1 SUB PUSH1 0x1F AND DUP3 ADD SWAP2 JUMPDEST POP POP POP POP POP SWAP1 POP JUMPDEST SWAP3 SWAP2 POP POP JUMP JUMPDEST PUSH2 0x90B PUSH1 0x3F PUSH1 0x60 DUP4 ADD CALLDATALOAD PUSH2 0xF3D JUMP JUMPDEST DUP3 LT ISZERO PUSH2 0x914 JUMPI INVALID JUMPDEST POP POP JUMP JUMPDEST PUSH1 0x0 PUSH2 0x8F6 PUSH2 0x925 PUSH2 0x9D1 JUMP JUMPDEST DUP4 PUSH1 0x40 MLOAD PUSH2 0x1901 PUSH1 0xF0 SHL DUP2 MSTORE PUSH1 0x2 DUP2 ADD SWAP3 SWAP1 SWAP3 MSTORE PUSH1 0x22 DUP3 ADD MSTORE PUSH1 0x42 SWAP1 KECCAK256 SWAP1 JUMP JUMPDEST PUSH1 0x0 DUP1 PUSH1 0x0 DUP4 MLOAD PUSH1 0x41 SUB PUSH2 0x97F JUMPI PUSH1 0x20 DUP5 ADD MLOAD PUSH1 0x40 DUP6 ADD MLOAD PUSH1 0x60 DUP7 ADD MLOAD PUSH1 0x0 BYTE PUSH2 0x971 DUP9 DUP3 DUP6 DUP6 PUSH2 0xAFC JUMP JUMPDEST SWAP6 POP SWAP6 POP SWAP6 POP POP POP POP PUSH2 0x98B JUMP JUMPDEST POP POP DUP2 MLOAD PUSH1 0x0 SWAP2 POP PUSH1 0x2 SWAP1 JUMPDEST SWAP3 POP SWAP3 POP SWAP3 JUMP JUMPDEST PUSH1 0x60 PUSH1 0x0 PUSH2 0x99F DUP4 PUSH2 0xBCB JUMP JUMPDEST PUSH1 0x40 DUP1 MLOAD PUSH1 0x20 DUP1 DUP3 MSTORE DUP2 DUP4 ADD SWAP1 SWAP3 MSTORE SWAP2 SWAP3 POP PUSH1 0x0 SWAP2 SWAP1 PUSH1 0x20 DUP3 ADD DUP2 DUP1 CALLDATASIZE DUP4 CALLDATACOPY POP POP POP SWAP2 DUP3 MSTORE POP PUSH1 0x20 DUP2 ADD SWAP3 SWAP1 SWAP3 MSTORE POP SWAP1 JUMP JUMPDEST PUSH1 0x0 ADDRESS PUSH1 0x1 PUSH1 0x1 PUSH1 0xA0 SHL SUB PUSH32 0x0 AND EQ DUP1 ISZERO PUSH2 0xA2A JUMPI POP PUSH32 0x0 CHAINID EQ JUMPDEST ISZERO PUSH2 0xA54 JUMPI POP PUSH32 0x0 SWAP1 JUMP JUMPDEST PUSH2 0x3AC PUSH1 0x40 DUP1 MLOAD PUSH32 0x8B73C3C69BB8FE3D512ECC4CF759CC79239F7B179B0FFACAA9A75D522B39400F PUSH1 0x20 DUP3 ADD MSTORE PUSH32 0x0 SWAP2 DUP2 ADD SWAP2 SWAP1 SWAP2 MSTORE PUSH32 0x0 PUSH1 0x60 DUP3 ADD MSTORE CHAINID PUSH1 0x80 DUP3 ADD MSTORE ADDRESS PUSH1 0xA0 DUP3 ADD MSTORE PUSH1 0x0 SWAP1 PUSH1 0xC0 ADD PUSH1 0x40 MLOAD PUSH1 0x20 DUP2 DUP4 SUB SUB DUP2 MSTORE SWAP1 PUSH1 0x40 MSTORE DUP1 MLOAD SWAP1 PUSH1 0x20 ADD KECCAK256 SWAP1 POP SWAP1 JUMP JUMPDEST PUSH1 0x0 DUP1 DUP1 PUSH32 0x7FFFFFFFFFFFFFFFFFFFFFFFFFFFFFFF5D576E7357A4501DDFE92F46681B20A0 DUP5 GT ISZERO PUSH2 0xB37 JUMPI POP PUSH1 0x0 SWAP2 POP PUSH1 0x3 SWAP1 POP DUP3 PUSH2 0xBC1 JUMP JUMPDEST PUSH1 0x40 DUP1 MLOAD PUSH1 0x0 DUP1 DUP3 MSTORE PUSH1 0x20 DUP3 ADD DUP1 DUP5 MSTORE DUP11 SWAP1 MSTORE PUSH1 0xFF DUP10 AND SWAP3 DUP3 ADD SWAP3 SWAP1 SWAP3 MSTORE PUSH1 0x60 DUP2 ADD DUP8 SWAP1 MSTORE PUSH1 0x80 DUP2 ADD DUP7 SWAP1 MSTORE PUSH1 0x1 SWAP1 PUSH1 0xA0 ADD PUSH1 0x20 PUSH1 0x40 MLOAD PUSH1 0x20 DUP2 SUB SWAP1 DUP1 DUP5 SUB SWAP1 DUP6 GAS STATICCALL ISZERO DUP1 ISZERO PUSH2 0xB8B JUMPI RETURNDATASIZE PUSH1 0x0 DUP1 RETURNDATACOPY RETURNDATASIZE PUSH1 0x0 REVERT JUMPDEST POP POP PUSH1 0x40 MLOAD PUSH1 0x1F NOT ADD MLOAD SWAP2 POP POP PUSH1 0x1 PUSH1 0x1 PUSH1 0xA0 SHL SUB DUP2 AND PUSH2 0xBB7 JUMPI POP PUSH1 0x0 SWAP3 POP PUSH1 0x1 SWAP2 POP DUP3 SWAP1 POP PUSH2 0xBC1 JUMP JUMPDEST SWAP3 POP PUSH1 0x0 SWAP2 POP DUP2 SWAP1 POP JUMPDEST SWAP5 POP SWAP5 POP SWAP5 SWAP2 POP POP JUMP JUMPDEST PUSH1 0x0 PUSH1 0xFF DUP3 AND PUSH1 0x1F DUP2 GT ISZERO PUSH2 0x8F6 JUMPI PUSH1 0x40 MLOAD PUSH4 0x2CD44AC3 PUSH1 0xE2 SHL DUP2 MSTORE PUSH1 0x4 ADD PUSH1 0x40 MLOAD DUP1 SWAP2 SUB SWAP1 REVERT JUMPDEST PUSH1 0x0 PUSH1 0x20 DUP3 DUP5 SUB SLT ISZERO PUSH2 0xC05 JUMPI PUSH1 0x0 DUP1 REVERT JUMPDEST DUP2 CALLDATALOAD PUSH8 0xFFFFFFFFFFFFFFFF DUP2 GT ISZERO PUSH2 0xC1C JUMPI PUSH1 0x0 DUP1 REVERT JUMPDEST DUP3 ADD PUSH1 0xE0 DUP2 DUP6 SUB SLT ISZERO PUSH2 0xC2E JUMPI PUSH1 0x0 DUP1 REVERT JUMPDEST SWAP4 SWAP3 POP POP POP JUMP JUMPDEST PUSH1 0x1 PUSH1 0x1 PUSH1 0xA0 SHL SUB DUP2 AND DUP2 EQ PUSH2 0x2F7 JUMPI PUSH1 0x0 DUP1 REVERT JUMPDEST PUSH1 0x0 PUSH1 0x20 DUP3 DUP5 SUB SLT ISZERO PUSH2 0xC5C JUMPI PUSH1 0x0 DUP1 REVERT JUMPDEST DUP2 CALLDATALOAD PUSH2 0xC2E DUP2 PUSH2 0xC35 JUMP JUMPDEST PUSH1 0x0 DUP2 MLOAD DUP1 DUP5 MSTORE PUSH1 0x0 JUMPDEST DUP2 DUP2 LT ISZERO PUSH2 0xC8D JUMPI PUSH1 0x20 DUP2 DUP6 ADD DUP2 ADD MLOAD DUP7 DUP4 ADD DUP3 ADD MSTORE ADD PUSH2 0xC71 JUMP JUMPDEST POP PUSH1 0x0 PUSH1 0x20 DUP3 DUP7 ADD ADD MSTORE PUSH1 0x20 PUSH1 0x1F NOT PUSH1 0x1F DUP4 ADD AND DUP6 ADD ADD SWAP2 POP POP SWAP3 SWAP2 POP POP JUMP JUMPDEST PUSH1 0xFF PUSH1 0xF8 SHL DUP9 AND DUP2 MSTORE PUSH1 0x0 PUSH1 0x20 PUSH1 0xE0 DUP2 DUP5 ADD MSTORE PUSH2 0xCCD PUSH1 0xE0 DUP5 ADD DUP11 PUSH2 0xC67 JUMP JUMPDEST DUP4 DUP2 SUB PUSH1 0x40 DUP6 ADD MSTORE PUSH2 0xCDF DUP2 DUP11 PUSH2 0xC67 JUMP JUMPDEST PUSH1 0x60 DUP6 ADD DUP10 SWAP1 MSTORE PUSH1 0x1 PUSH1 0x1 PUSH1 0xA0 SHL SUB DUP9 AND PUSH1 0x80 DUP7 ADD MSTORE PUSH1 0xA0 DUP6 ADD DUP8 SWAP1 MSTORE DUP5 DUP2 SUB PUSH1 0xC0 DUP7 ADD MSTORE DUP6 MLOAD DUP1 DUP3 MSTORE DUP4 DUP8 ADD SWAP3 POP SWAP1 DUP4 ADD SWAP1 PUSH1 0x0 JUMPDEST DUP2 DUP2 LT ISZERO PUSH2 0xD31 JUMPI DUP4 MLOAD DUP4 MSTORE SWAP3 DUP5 ADD SWAP3 SWAP2 DUP5 ADD SWAP2 PUSH1 0x1 ADD PUSH2 0xD15 JUMP JUMPDEST POP SWAP1 SWAP13 SWAP12 POP POP POP POP POP POP POP POP POP POP POP POP JUMP JUMPDEST PUSH1 0x0 DUP1 PUSH1 0x0 PUSH1 0x40 DUP5 DUP7 SUB SLT ISZERO PUSH2 0xD58 JUMPI PUSH1 0x0 DUP1 REVERT JUMPDEST DUP4 CALLDATALOAD PUSH8 0xFFFFFFFFFFFFFFFF DUP1 DUP3 GT ISZERO PUSH2 0xD70 JUMPI PUSH1 0x0 DUP1 REVERT JUMPDEST DUP2 DUP7 ADD SWAP2 POP DUP7 PUSH1 0x1F DUP4 ADD SLT PUSH2 0xD84 JUMPI PUSH1 0x0 DUP1 REVERT JUMPDEST DUP2 CALLDATALOAD DUP2 DUP2 GT ISZERO PUSH2 0xD93 JUMPI PUSH1 0x0 DUP1 REVERT JUMPDEST DUP8 PUSH1 0x20 DUP3 PUSH1 0x5 SHL DUP6 ADD ADD GT ISZERO PUSH2 0xDA8 JUMPI PUSH1 0x0 DUP1 REVERT JUMPDEST PUSH1 0x20 SWAP3 DUP4 ADD SWAP6 POP SWAP4 POP POP DUP5 ADD CALLDATALOAD PUSH2 0xDBE DUP2 PUSH2 0xC35 JUMP JUMPDEST DUP1 SWAP2 POP POP SWAP3 POP SWAP3 POP SWAP3 JUMP JUMPDEST PUSH4 0x4E487B71 PUSH1 0xE0 SHL PUSH1 0x0 MSTORE PUSH1 0x32 PUSH1 0x4 MSTORE PUSH1 0x24 PUSH1 0x0 REVERT JUMPDEST PUSH1 0x0 DUP3 CALLDATALOAD PUSH1 0xDE NOT DUP4 CALLDATASIZE SUB ADD DUP2 SLT PUSH2 0xDF5 JUMPI PUSH1 0x0 DUP1 REVERT JUMPDEST SWAP2 SWAP1 SWAP2 ADD SWAP3 SWAP2 POP POP JUMP JUMPDEST PUSH4 0x4E487B71 PUSH1 0xE0 SHL PUSH1 0x0 MSTORE PUSH1 0x11 PUSH1 0x4 MSTORE PUSH1 0x24 PUSH1 0x0 REVERT JUMPDEST DUP1 DUP3 ADD DUP1 DUP3 GT ISZERO PUSH2 0x8F6 JUMPI PUSH2 0x8F6 PUSH2 0xDFF JUMP JUMPDEST PUSH1 0x0 PUSH1 0x1 DUP3 ADD PUSH2 0xE3A JUMPI PUSH2 0xE3A PUSH2 0xDFF JUMP JUMPDEST POP PUSH1 0x1 ADD SWAP1 JUMP JUMPDEST PUSH1 0x0 PUSH1 0x20 DUP3 DUP5 SUB SLT ISZERO PUSH2 0xE53 JUMPI PUSH1 0x0 DUP1 REVERT JUMPDEST DUP2 CALLDATALOAD PUSH6 0xFFFFFFFFFFFF DUP2 AND DUP2 EQ PUSH2 0xC2E JUMPI PUSH1 0x0 DUP1 REVERT JUMPDEST PUSH1 0x0 DUP1 DUP4 CALLDATALOAD PUSH1 0x1E NOT DUP5 CALLDATASIZE SUB ADD DUP2 SLT PUSH2 0xE80 JUMPI PUSH1 0x0 DUP1 REVERT JUMPDEST DUP4 ADD DUP1 CALLDATALOAD SWAP2 POP PUSH8 0xFFFFFFFFFFFFFFFF DUP3 GT ISZERO PUSH2 0xE9B JUMPI PUSH1 0x0 DUP1 REVERT JUMPDEST PUSH1 0x20 ADD SWAP2 POP CALLDATASIZE DUP2 SWAP1 SUB DUP3 SGT ISZERO PUSH2 0xEB0 JUMPI PUSH1 0x0 DUP1 REVERT JUMPDEST SWAP3 POP SWAP3 SWAP1 POP JUMP JUMPDEST DUP3 DUP5 DUP3 CALLDATACOPY PUSH1 0x60 SWAP2 SWAP1 SWAP2 SHL PUSH12 0xFFFFFFFFFFFFFFFFFFFFFFFF NOT AND SWAP2 ADD SWAP1 DUP2 MSTORE PUSH1 0x14 ADD SWAP2 SWAP1 POP JUMP JUMPDEST DUP2 DUP4 DUP3 CALLDATACOPY PUSH1 0x0 SWAP2 ADD SWAP1 DUP2 MSTORE SWAP2 SWAP1 POP JUMP JUMPDEST PUSH4 0x4E487B71 PUSH1 0xE0 SHL PUSH1 0x0 MSTORE PUSH1 0x21 PUSH1 0x4 MSTORE PUSH1 0x24 PUSH1 0x0 REVERT JUMPDEST PUSH1 0x1 DUP2 DUP2 SHR SWAP1 DUP3 AND DUP1 PUSH2 0xF17 JUMPI PUSH1 0x7F DUP3 AND SWAP2 POP JUMPDEST PUSH1 0x20 DUP3 LT DUP2 SUB PUSH2 0xF37 JUMPI PUSH4 0x4E487B71 PUSH1 0xE0 SHL PUSH1 0x0 MSTORE PUSH1 0x22 PUSH1 0x4 MSTORE PUSH1 0x24 PUSH1 0x0 REVERT JUMPDEST POP SWAP2 SWAP1 POP JUMP JUMPDEST PUSH1 0x0 DUP3 PUSH2 0xF5A JUMPI PUSH4 0x4E487B71 PUSH1 0xE0 SHL PUSH1 0x0 MSTORE PUSH1 0x12 PUSH1 0x4 MSTORE PUSH1 0x24 PUSH1 0x0 REVERT JUMPDEST POP DIV SWAP1 JUMP INVALID LOG2 PUSH5 0x6970667358 0x22 SLT KECCAK256 OR RETURNDATASIZE MSTORE RETURNDATACOPY 0x49 0xCB 0xAA STOP 0xEC 0xDD SWAP2 0x24 PUSH2 0x9AE5 PUSH26 0xA3CE9602D262EFC19723ADA683DF822A64736F6C634300081400 CALLER "},"methodIdentifiers":{"eip712Domain()":"84b0196e","execute((address,address,uint256,uint256,uint48,bytes,bytes))":"df905caf","executeBatch((address,address,uint256,uint256,uint48,bytes,bytes)[],address)":"ccf96b4a","nonces(address)":"7ecebe00","verify((address,address,uint256,uint256,uint48,bytes,bytes))":"19d8d38c"}}}}}