{
  "_format": "hh-sol-artifact-1",
  "contractName": "Forwarder",
  "sourceName": "contracts/gsn/Forwarder.sol",
  "abi": [
    {
      "inputs": [],
      "name": "ECDSAInvalidSignature",
      "type": "error"
    },
    {
      "inputs": [
        {
          "internalType": "uint256",
          "name": "length",
          "type": "uint256"
        }
      ],
      "name": "ECDSAInvalidSignatureLength",
      "type": "error"
    },
    {
      "inputs": [
        {
          "internalType": "bytes32",
          "name": "s",
          "type": "bytes32"
        }
      ],
      "name": "ECDSAInvalidSignatureS",
      "type": "error"
    },
    {
      "inputs": [
        {
          "components": [
            {
              "internalType": "address",
              "name": "from",
              "type": "address"
            },
            {
              "internalType": "address",
              "name": "to",
              "type": "address"
            },
            {
              "internalType": "uint256",
              "name": "value",
              "type": "uint256"
            },
            {
              "internalType": "uint256",
              "name": "gas",
              "type": "uint256"
            },
            {
              "internalType": "uint256",
              "name": "nonce",
              "type": "uint256"
            },
            {
              "internalType": "bytes",
              "name": "data",
              "type": "bytes"
            }
          ],
          "internalType": "struct Forwarder.ForwardRequest",
          "name": "req",
          "type": "tuple"
        },
        {
          "internalType": "bytes",
          "name": "signature",
          "type": "bytes"
        }
      ],
      "name": "execute",
      "outputs": [
        {
          "internalType": "bool",
          "name": "",
          "type": "bool"
        },
        {
          "internalType": "bytes",
          "name": "",
          "type": "bytes"
        }
      ],
      "stateMutability": "payable",
      "type": "function"
    },
    {
      "inputs": [
        {
          "internalType": "address",
          "name": "from",
          "type": "address"
        }
      ],
      "name": "getNonce",
      "outputs": [
        {
          "internalType": "uint256",
          "name": "",
          "type": "uint256"
        }
      ],
      "stateMutability": "view",
      "type": "function"
    },
    {
      "inputs": [
        {
          "components": [
            {
              "internalType": "address",
              "name": "from",
              "type": "address"
            },
            {
              "internalType": "address",
              "name": "to",
              "type": "address"
            },
            {
              "internalType": "uint256",
              "name": "value",
              "type": "uint256"
            },
            {
              "internalType": "uint256",
              "name": "gas",
              "type": "uint256"
            },
            {
              "internalType": "uint256",
              "name": "nonce",
              "type": "uint256"
            },
            {
              "internalType": "bytes",
              "name": "data",
              "type": "bytes"
            }
          ],
          "internalType": "struct Forwarder.ForwardRequest",
          "name": "req",
          "type": "tuple"
        },
        {
          "internalType": "bytes",
          "name": "signature",
          "type": "bytes"
        }
      ],
      "name": "verify",
      "outputs": [
        {
          "internalType": "bool",
          "name": "",
          "type": "bool"
        }
      ],
      "stateMutability": "pure",
      "type": "function"
    },
    {
      "stateMutability": "payable",
      "type": "receive"
    }
  ],
  "bytecode": "0x608060405234801561001057600080fd5b50610857806100206000396000f3fe6080604052600436106100385760003560e01c80632d0335ab1461004457806347153f821461008d578063bf5d3bdb146100ae57600080fd5b3661003f57005b600080fd5b34801561005057600080fd5b5061007a61005f366004610615565b6001600160a01b031660009081526020819052604090205490565b6040519081526020015b60405180910390f35b6100a061009b366004610645565b6100de565b604051610084929190610708565b3480156100ba57600080fd5b506100ce6100c9366004610645565b6102a0565b6040519015158152602001610084565b600060606100ed8585856102a0565b6101325760405162461bcd60e51b8152602060048201526011602482015270496e76616c6964207369676e617475726560781b60448201526064015b60405180910390fd5b60808501356000806101476020890189610615565b6001600160a01b03166001600160a01b0316815260200190815260200160002054146101a55760405162461bcd60e51b815260206004820152600d60248201526c496e76616c6964206e6f6e636560981b6044820152606401610129565b6000806101b56020880188610615565b6001600160a01b03168152602081019190915260400160009081208054916101dc83610744565b9091555060009050806101f56040880160208901610615565b6001600160a01b03166060880135604089013561021560a08b018b61076b565b61022260208d018d610615565b604051602001610234939291906107b9565b60408051601f198184030181529082905261024e916107df565b600060405180830381858888f193505050503d806000811461028c576040519150601f19603f3d011682016040523d82523d6000602084013e610291565b606091505b50909890975095505050505050565b6000807fdd8f4b70b0f4393e889bd39128a30628a78b61816a9eb8199759e7a349657e486102d16020870187610615565b6102e16040880160208901610615565b6040880135606089013560808a01356102fd60a08c018c61076b565b60405161030b9291906107fb565b6040805191829003822060208301989098526001600160a01b0396871690820152949093166060850152608084019190915260a083015260c082015260e08101919091526101000160405160208183030381529060405280519060200120905060006103a4827f19457468657265756d205369676e6564204d6573736167653a0a3332000000006000908152601c91909152603c902090565b90506103b36020870187610615565b6001600160a01b03166103fe86868080601f01602080910402602001604051908101604052809392919081815260200183838082843760009201919091525086939250506104129050565b6001600160a01b0316149695505050505050565b600080600080610422868661043c565b9250925092506104328282610489565b5090949350505050565b600080600083516041036104765760208401516040850151606086015160001a61046888828585610546565b955095509550505050610482565b50508151600091506002905b9250925092565b600082600381111561049d5761049d61080b565b036104a6575050565b60018260038111156104ba576104ba61080b565b036104d85760405163f645eedf60e01b815260040160405180910390fd5b60028260038111156104ec576104ec61080b565b0361050d5760405163fce698f760e01b815260048101829052602401610129565b60038260038111156105215761052161080b565b03610542576040516335e2f38360e21b815260048101829052602401610129565b5050565b600080807f7fffffffffffffffffffffffffffffff5d576e7357a4501ddfe92f46681b20a0841115610581575060009150600390508261060b565b604080516000808252602082018084528a905260ff891692820192909252606081018790526080810186905260019060a0016020604051602081039080840390855afa1580156105d5573d6000803e3d6000fd5b5050604051601f1901519150506001600160a01b0381166106015750600092506001915082905061060b565b9250600091508190505b9450945094915050565b60006020828403121561062757600080fd5b81356001600160a01b038116811461063e57600080fd5b9392505050565b60008060006040848603121561065a57600080fd5b833567ffffffffffffffff8082111561067257600080fd5b9085019060c0828803121561068657600080fd5b9093506020850135908082111561069c57600080fd5b818601915086601f8301126106b057600080fd5b8135818111156106bf57600080fd5b8760208285010111156106d157600080fd5b6020830194508093505050509250925092565b60005b838110156106ff5781810151838201526020016106e7565b50506000910152565b8215158152604060208201526000825180604084015261072f8160608501602087016106e4565b601f01601f1916919091016060019392505050565b60006001820161076457634e487b7160e01b600052601160045260246000fd5b5060010190565b6000808335601e1984360301811261078257600080fd5b83018035915067ffffffffffffffff82111561079d57600080fd5b6020019150368190038213156107b257600080fd5b9250929050565b8284823760609190911b6bffffffffffffffffffffffff19169101908152601401919050565b600082516107f18184602087016106e4565b9190910192915050565b8183823760009101908152919050565b634e487b7160e01b600052602160045260246000fdfea2646970667358221220907f9f03ea1332aa88e83a43cbb8527830600a248aa246f453bf90c2e30ebf0864736f6c63430008140033",
  "linkReferences": {},
  "deployedLinkReferences": {}
}