{
  "_format": "hh-sol-artifact-1",
  "contractName": "IdentityRegistryMeta",
  "sourceName": "contracts/IdentityRegistryMeta.sol",
  "abi": [
    {
      "inputs": [
        {
          "internalType": "address",
          "name": "trustedForwarder",
          "type": "address"
        }
      ],
      "stateMutability": "nonpayable",
      "type": "constructor"
    },
    {
      "anonymous": false,
      "inputs": [
        {
          "indexed": true,
          "internalType": "address",
          "name": "owner",
          "type": "address"
        },
        {
          "indexed": true,
          "internalType": "bytes32",
          "name": "claimId",
          "type": "bytes32"
        }
      ],
      "name": "ClaimRemoved",
      "type": "event"
    },
    {
      "anonymous": false,
      "inputs": [
        {
          "indexed": true,
          "internalType": "address",
          "name": "owner",
          "type": "address"
        },
        {
          "indexed": true,
          "internalType": "bytes32",
          "name": "claimId",
          "type": "bytes32"
        },
        {
          "indexed": false,
          "internalType": "bytes32",
          "name": "claimHash",
          "type": "bytes32"
        }
      ],
      "name": "ClaimSet",
      "type": "event"
    },
    {
      "anonymous": false,
      "inputs": [
        {
          "indexed": true,
          "internalType": "address",
          "name": "owner",
          "type": "address"
        },
        {
          "indexed": false,
          "internalType": "string",
          "name": "cid",
          "type": "string"
        }
      ],
      "name": "IdentityRegistered",
      "type": "event"
    },
    {
      "anonymous": false,
      "inputs": [
        {
          "indexed": true,
          "internalType": "address",
          "name": "owner",
          "type": "address"
        },
        {
          "indexed": false,
          "internalType": "string",
          "name": "cid",
          "type": "string"
        }
      ],
      "name": "ProfileSet",
      "type": "event"
    },
    {
      "inputs": [
        {
          "internalType": "address",
          "name": "owner",
          "type": "address"
        },
        {
          "internalType": "bytes32",
          "name": "claimId",
          "type": "bytes32"
        }
      ],
      "name": "getClaim",
      "outputs": [
        {
          "internalType": "bytes32",
          "name": "",
          "type": "bytes32"
        }
      ],
      "stateMutability": "view",
      "type": "function"
    },
    {
      "inputs": [
        {
          "internalType": "address",
          "name": "owner",
          "type": "address"
        }
      ],
      "name": "getProfileCID",
      "outputs": [
        {
          "internalType": "string",
          "name": "",
          "type": "string"
        }
      ],
      "stateMutability": "view",
      "type": "function"
    },
    {
      "inputs": [
        {
          "internalType": "address",
          "name": "owner",
          "type": "address"
        }
      ],
      "name": "hasProfile",
      "outputs": [
        {
          "internalType": "bool",
          "name": "",
          "type": "bool"
        }
      ],
      "stateMutability": "view",
      "type": "function"
    },
    {
      "inputs": [
        {
          "internalType": "address",
          "name": "forwarder",
          "type": "address"
        }
      ],
      "name": "isTrustedForwarder",
      "outputs": [
        {
          "internalType": "bool",
          "name": "",
          "type": "bool"
        }
      ],
      "stateMutability": "view",
      "type": "function"
    },
    {
      "inputs": [
        {
          "internalType": "string",
          "name": "cid",
          "type": "string"
        }
      ],
      "name": "registerIdentity",
      "outputs": [],
      "stateMutability": "nonpayable",
      "type": "function"
    },
    {
      "inputs": [
        {
          "internalType": "address",
          "name": "owner",
          "type": "address"
        },
        {
          "internalType": "bytes32",
          "name": "claimId",
          "type": "bytes32"
        }
      ],
      "name": "removeClaim",
      "outputs": [],
      "stateMutability": "nonpayable",
      "type": "function"
    },
    {
      "inputs": [
        {
          "internalType": "address",
          "name": "owner",
          "type": "address"
        },
        {
          "internalType": "bytes32",
          "name": "claimId",
          "type": "bytes32"
        },
        {
          "internalType": "bytes32",
          "name": "claimHash",
          "type": "bytes32"
        }
      ],
      "name": "setClaim",
      "outputs": [],
      "stateMutability": "nonpayable",
      "type": "function"
    },
    {
      "inputs": [
        {
          "internalType": "address",
          "name": "owner",
          "type": "address"
        },
        {
          "internalType": "string",
          "name": "cid",
          "type": "string"
        }
      ],
      "name": "setProfileCID",
      "outputs": [],
      "stateMutability": "nonpayable",
      "type": "function"
    },
    {
      "inputs": [],
      "name": "trustedForwarder",
      "outputs": [
        {
          "internalType": "address",
          "name": "",
          "type": "address"
        }
      ],
      "stateMutability": "view",
      "type": "function"
    },
    {
      "stateMutability": "payable",
      "type": "receive"
    }
  ],
  "bytecode": "0x60a060405234801561001057600080fd5b50604051610b05380380610b0583398101604081905261002f91610040565b6001600160a01b0316608052610070565b60006020828403121561005257600080fd5b81516001600160a01b038116811461006957600080fd5b9392505050565b608051610a6c6100996000396000818161012b0152818161018501526105f80152610a6c6000f3fe60806040526004361061008a5760003560e01c806392849ca41161005957806392849ca4146101af5780639918925d146101cf578063a1c8ca7e146101ef578063a787c80b1461020f578063de8b05be1461022f57600080fd5b80634361443f1461009657806346a59e5f146100ec578063572b6c051461010e5780637da0a8771461016b57600080fd5b3661009157005b600080fd5b3480156100a257600080fd5b506100d96100b136600461066e565b6001600160a01b03919091166000908152600160209081526040808320938352929052205490565b6040519081526020015b60405180910390f35b3480156100f857600080fd5b5061010c6101073660046106e1565b61025c565b005b34801561011a57600080fd5b5061015b610129366004610734565b7f00000000000000000000000000000000000000000000000000000000000000006001600160a01b0390811691161490565b60405190151581526020016100e3565b34801561017757600080fd5b506040516001600160a01b037f00000000000000000000000000000000000000000000000000000000000000001681526020016100e3565b3480156101bb57600080fd5b5061010c6101ca366004610756565b61030b565b3480156101db57600080fd5b5061010c6101ea366004610798565b6103d6565b3480156101fb57600080fd5b5061010c61020a36600461066e565b61046f565b34801561021b57600080fd5b5061015b61022a366004610734565b6104fb565b34801561023b57600080fd5b5061024f61024a366004610734565b61052b565b6040516100e391906107cb565b82806001600160a01b031661026f6105d7565b6001600160a01b03161461029e5760405162461bcd60e51b815260040161029590610819565b60405180910390fd5b6001600160a01b03841660009081526020819052604090206102c18385836108e7565b50836001600160a01b03167f56d78f91013a9df87c3059830b445edb071285effe6a7fe07fe1b235b9ae0fc384846040516102fd9291906109a8565b60405180910390a250505050565b81816000806103186105d7565b6001600160a01b0316815260208101919091526040016000209161033d9190836108e7565b506103466105d7565b6001600160a01b03167f56d78f91013a9df87c3059830b445edb071285effe6a7fe07fe1b235b9ae0fc383836040516103809291906109a8565b60405180910390a26103906105d7565b6001600160a01b03167f9b6805eb7a1bee8a797c79c5f2a39a182f3d37f8b8cce5ec42371000c8115dfd83836040516103ca9291906109a8565b60405180910390a25050565b82806001600160a01b03166103e96105d7565b6001600160a01b03161461040f5760405162461bcd60e51b815260040161029590610819565b6001600160a01b038416600081815260016020908152604080832087845282529182902085905590518481528592917f32e23ce2e82f46f421b8ffb2c7c2e2fa3db44ade2ac5f6796f52db108a887c5b910160405180910390a350505050565b81806001600160a01b03166104826105d7565b6001600160a01b0316146104a85760405162461bcd60e51b815260040161029590610819565b6001600160a01b0383166000818152600160209081526040808320868452909152808220829055518492917f82ab91eafd2c6fb1627340b0d19493f5e5df4d920fbaaf6ac40124783af8bfd491a3505050565b6001600160a01b038116600090815260208190526040812080548291906105219061085e565b9050119050919050565b6001600160a01b03811660009081526020819052604090208054606091906105529061085e565b80601f016020809104026020016040519081016040528092919081815260200182805461057e9061085e565b80156105cb5780601f106105a0576101008083540402835291602001916105cb565b820191906000526020600020905b8154815290600101906020018083116105ae57829003601f168201915b50505050509050919050565b60006105e16105e6565b905090565b600036601480821080159061062357507f00000000000000000000000000000000000000000000000000000000000000006001600160a01b031633145b1561064a57610637368284038160006109d7565b61064091610a01565b60601c9250505090565b339250505090565b80356001600160a01b038116811461066957600080fd5b919050565b6000806040838503121561068157600080fd5b61068a83610652565b946020939093013593505050565b60008083601f8401126106aa57600080fd5b50813567ffffffffffffffff8111156106c257600080fd5b6020830191508360208285010111156106da57600080fd5b9250929050565b6000806000604084860312156106f657600080fd5b6106ff84610652565b9250602084013567ffffffffffffffff81111561071b57600080fd5b61072786828701610698565b9497909650939450505050565b60006020828403121561074657600080fd5b61074f82610652565b9392505050565b6000806020838503121561076957600080fd5b823567ffffffffffffffff81111561078057600080fd5b61078c85828601610698565b90969095509350505050565b6000806000606084860312156107ad57600080fd5b6107b684610652565b95602085013595506040909401359392505050565b600060208083528351808285015260005b818110156107f8578581018301518582016040015282016107dc565b506000604082860101526040601f19601f8301168501019250505092915050565b6020808252601590820152742737ba103a343290383937b334b6329037bbb732b960591b604082015260600190565b634e487b7160e01b600052604160045260246000fd5b600181811c9082168061087257607f821691505b60208210810361089257634e487b7160e01b600052602260045260246000fd5b50919050565b601f8211156108e257600081815260208120601f850160051c810160208610156108bf5750805b601f850160051c820191505b818110156108de578281556001016108cb565b5050505b505050565b67ffffffffffffffff8311156108ff576108ff610848565b6109138361090d835461085e565b83610898565b6000601f841160018114610947576000851561092f5750838201355b600019600387901b1c1916600186901b1783556109a1565b600083815260209020601f19861690835b828110156109785786850135825560209485019460019092019101610958565b50868210156109955760001960f88860031b161c19848701351681555b505060018560011b0183555b5050505050565b60208152816020820152818360408301376000818301604090810191909152601f909201601f19160101919050565b600080858511156109e757600080fd5b838611156109f457600080fd5b5050820193919092039150565b6bffffffffffffffffffffffff198135818116916014851015610a2e5780818660140360031b1b83161692505b50509291505056fea26469706673582212203bda7846e1e04fb723aad26013406761dbc9b13dcf4b7ccbfb31e617a91ef59f64736f6c63430008140033",
  "linkReferences": {},
  "deployedLinkReferences": {}
}