{
  "_format": "hh-sol-artifact-1",
  "contractName": "IdentityRegistryMeta",
  "sourceName": "contracts/IdentityRegistryMeta.sol",
  "abi": [
    {
      "inputs": [
        {
          "internalType": "address",
          "name": "trustedForwarder",
          "type": "address"
        }
      ],
      "stateMutability": "nonpayable",
      "type": "constructor"
    },
    {
      "anonymous": false,
      "inputs": [
        {
          "indexed": true,
          "internalType": "address",
          "name": "owner",
          "type": "address"
        },
        {
          "indexed": true,
          "internalType": "bytes32",
          "name": "claimId",
          "type": "bytes32"
        }
      ],
      "name": "ClaimRemoved",
      "type": "event"
    },
    {
      "anonymous": false,
      "inputs": [
        {
          "indexed": true,
          "internalType": "address",
          "name": "owner",
          "type": "address"
        },
        {
          "indexed": true,
          "internalType": "bytes32",
          "name": "claimId",
          "type": "bytes32"
        },
        {
          "indexed": false,
          "internalType": "bytes32",
          "name": "claimHash",
          "type": "bytes32"
        }
      ],
      "name": "ClaimSet",
      "type": "event"
    },
    {
      "anonymous": false,
      "inputs": [
        {
          "indexed": true,
          "internalType": "address",
          "name": "owner",
          "type": "address"
        },
        {
          "indexed": false,
          "internalType": "string",
          "name": "cid",
          "type": "string"
        }
      ],
      "name": "IdentityRegistered",
      "type": "event"
    },
    {
      "anonymous": false,
      "inputs": [
        {
          "indexed": true,
          "internalType": "address",
          "name": "owner",
          "type": "address"
        },
        {
          "indexed": false,
          "internalType": "string",
          "name": "cid",
          "type": "string"
        }
      ],
      "name": "ProfileSet",
      "type": "event"
    },
    {
      "inputs": [
        {
          "internalType": "address",
          "name": "owner",
          "type": "address"
        },
        {
          "internalType": "bytes32",
          "name": "claimId",
          "type": "bytes32"
        }
      ],
      "name": "getClaim",
      "outputs": [
        {
          "internalType": "bytes32",
          "name": "",
          "type": "bytes32"
        }
      ],
      "stateMutability": "view",
      "type": "function"
    },
    {
      "inputs": [
        {
          "internalType": "address",
          "name": "owner",
          "type": "address"
        }
      ],
      "name": "getProfileCID",
      "outputs": [
        {
          "internalType": "string",
          "name": "",
          "type": "string"
        }
      ],
      "stateMutability": "view",
      "type": "function"
    },
    {
      "inputs": [
        {
          "internalType": "address",
          "name": "owner",
          "type": "address"
        }
      ],
      "name": "hasProfile",
      "outputs": [
        {
          "internalType": "bool",
          "name": "",
          "type": "bool"
        }
      ],
      "stateMutability": "view",
      "type": "function"
    },
    {
      "inputs": [
        {
          "internalType": "address",
          "name": "forwarder",
          "type": "address"
        }
      ],
      "name": "isTrustedForwarder",
      "outputs": [
        {
          "internalType": "bool",
          "name": "",
          "type": "bool"
        }
      ],
      "stateMutability": "view",
      "type": "function"
    },
    {
      "inputs": [
        {
          "internalType": "string",
          "name": "cid",
          "type": "string"
        }
      ],
      "name": "registerIdentity",
      "outputs": [],
      "stateMutability": "nonpayable",
      "type": "function"
    },
    {
      "inputs": [
        {
          "internalType": "address",
          "name": "owner",
          "type": "address"
        },
        {
          "internalType": "bytes32",
          "name": "claimId",
          "type": "bytes32"
        }
      ],
      "name": "removeClaim",
      "outputs": [],
      "stateMutability": "nonpayable",
      "type": "function"
    },
    {
      "inputs": [
        {
          "internalType": "address",
          "name": "owner",
          "type": "address"
        },
        {
          "internalType": "bytes32",
          "name": "claimId",
          "type": "bytes32"
        },
        {
          "internalType": "bytes32",
          "name": "claimHash",
          "type": "bytes32"
        }
      ],
      "name": "setClaim",
      "outputs": [],
      "stateMutability": "nonpayable",
      "type": "function"
    },
    {
      "inputs": [
        {
          "internalType": "address",
          "name": "owner",
          "type": "address"
        },
        {
          "internalType": "string",
          "name": "cid",
          "type": "string"
        }
      ],
      "name": "setProfileCID",
      "outputs": [],
      "stateMutability": "nonpayable",
      "type": "function"
    },
    {
      "inputs": [],
      "name": "trustedForwarder",
      "outputs": [
        {
          "internalType": "address",
          "name": "",
          "type": "address"
        }
      ],
      "stateMutability": "view",
      "type": "function"
    },
    {
      "stateMutability": "payable",
      "type": "receive"
    }
  ],
  "bytecode": "0x60a060405234801561001057600080fd5b50604051610b37380380610b3783398101604081905261002f91610040565b6001600160a01b0316608052610070565b60006020828403121561005257600080fd5b81516001600160a01b038116811461006957600080fd5b9392505050565b608051610a9e610099600039600081816101080152818161016201526105f50152610a9e6000f3fe60806040526004361061008a5760003560e01c806392849ca41161005957806392849ca41461018c5780639918925d146101ac578063a1c8ca7e146101cc578063a787c80b146101ec578063de8b05be1461020c57600080fd5b80634361443f1461009657806346a59e5f146100c9578063572b6c05146100eb5780637da0a8771461014857600080fd5b3661009157005b600080fd5b3480156100a257600080fd5b506100b66100b136600461067f565b610239565b6040519081526020015b60405180910390f35b3480156100d557600080fd5b506100e96100e43660046106f2565b610264565b005b3480156100f757600080fd5b50610138610106366004610745565b7f00000000000000000000000000000000000000000000000000000000000000006001600160a01b0390811691161490565b60405190151581526020016100c0565b34801561015457600080fd5b506040516001600160a01b037f00000000000000000000000000000000000000000000000000000000000000001681526020016100c0565b34801561019857600080fd5b506100e96101a7366004610767565b610313565b3480156101b857600080fd5b506100e96101c73660046107a9565b6103de565b3480156101d857600080fd5b506100e96101e736600461067f565b610477565b3480156101f857600080fd5b50610138610207366004610745565b610503565b34801561021857600080fd5b5061022c610227366004610745565b610533565b6040516100c091906107dc565b6001600160a01b03821660009081526001602090815260408083208484529091529020545b92915050565b82806001600160a01b03166102776105df565b6001600160a01b0316146102a65760405162461bcd60e51b815260040161029d9061082a565b60405180910390fd5b6001600160a01b03841660009081526020819052604090206102c98385836108f8565b50836001600160a01b03167f56d78f91013a9df87c3059830b445edb071285effe6a7fe07fe1b235b9ae0fc384846040516103059291906109b9565b60405180910390a250505050565b81816000806103206105df565b6001600160a01b031681526020810191909152604001600020916103459190836108f8565b5061034e6105df565b6001600160a01b03167f56d78f91013a9df87c3059830b445edb071285effe6a7fe07fe1b235b9ae0fc383836040516103889291906109b9565b60405180910390a26103986105df565b6001600160a01b03167f9b6805eb7a1bee8a797c79c5f2a39a182f3d37f8b8cce5ec42371000c8115dfd83836040516103d29291906109b9565b60405180910390a25050565b82806001600160a01b03166103f16105df565b6001600160a01b0316146104175760405162461bcd60e51b815260040161029d9061082a565b6001600160a01b038416600081815260016020908152604080832087845282529182902085905590518481528592917f32e23ce2e82f46f421b8ffb2c7c2e2fa3db44ade2ac5f6796f52db108a887c5b910160405180910390a350505050565b81806001600160a01b031661048a6105df565b6001600160a01b0316146104b05760405162461bcd60e51b815260040161029d9061082a565b6001600160a01b0383166000818152600160209081526040808320868452909152808220829055518492917f82ab91eafd2c6fb1627340b0d19493f5e5df4d920fbaaf6ac40124783af8bfd491a3505050565b6001600160a01b038116600090815260208190526040812080548291906105299061086f565b9050119050919050565b6001600160a01b038116600090815260208190526040902080546060919061055a9061086f565b80601f01602080910402602001604051908101604052809291908181526020018280546105869061086f565b80156105d35780601f106105a8576101008083540402835291602001916105d3565b820191906000526020600020905b8154815290600101906020018083116105b657829003601f168201915b50505050509050919050565b60006105e96105ee565b905090565b60003660147f00000000000000000000000000000000000000000000000000000000000000006001600160a01b03163314801561062b5750808210155b1561065b5760003661063d83856109e8565b610648928290610a09565b61065191610a33565b60601c9250505090565b339250505090565b80356001600160a01b038116811461067a57600080fd5b919050565b6000806040838503121561069257600080fd5b61069b83610663565b946020939093013593505050565b60008083601f8401126106bb57600080fd5b50813567ffffffffffffffff8111156106d357600080fd5b6020830191508360208285010111156106eb57600080fd5b9250929050565b60008060006040848603121561070757600080fd5b61071084610663565b9250602084013567ffffffffffffffff81111561072c57600080fd5b610738868287016106a9565b9497909650939450505050565b60006020828403121561075757600080fd5b61076082610663565b9392505050565b6000806020838503121561077a57600080fd5b823567ffffffffffffffff81111561079157600080fd5b61079d858286016106a9565b90969095509350505050565b6000806000606084860312156107be57600080fd5b6107c784610663565b95602085013595506040909401359392505050565b600060208083528351808285015260005b81811015610809578581018301518582016040015282016107ed565b506000604082860101526040601f19601f8301168501019250505092915050565b6020808252601590820152742737ba103a343290383937b334b6329037bbb732b960591b604082015260600190565b634e487b7160e01b600052604160045260246000fd5b600181811c9082168061088357607f821691505b6020821081036108a357634e487b7160e01b600052602260045260246000fd5b50919050565b601f8211156108f357600081815260208120601f850160051c810160208610156108d05750805b601f850160051c820191505b818110156108ef578281556001016108dc565b5050505b505050565b67ffffffffffffffff83111561091057610910610859565b6109248361091e835461086f565b836108a9565b6000601f84116001811461095857600085156109405750838201355b600019600387901b1c1916600186901b1783556109b2565b600083815260209020601f19861690835b828110156109895786850135825560209485019460019092019101610969565b50868210156109a65760001960f88860031b161c19848701351681555b505060018560011b0183555b5050505050565b60208152816020820152818360408301376000818301604090810191909152601f909201601f19160101919050565b8181038181111561025e57634e487b7160e01b600052601160045260246000fd5b60008085851115610a1957600080fd5b83861115610a2657600080fd5b5050820193919092039150565b6bffffffffffffffffffffffff198135818116916014851015610a605780818660140360031b1b83161692505b50509291505056fea2646970667358221220ab7728f0630307092a62a8a6809a6b5bf242d5bb2b13a126d7856708afbfc60d64736f6c63430008140033",
  "linkReferences": {},
  "deployedLinkReferences": {}
}