{
  "_format": "hh-sol-artifact-1",
  "contractName": "IdentityRegistryGSN",
  "sourceName": "contracts/IdentityRegistryGSN.sol",
  "abi": [
    {
      "inputs": [],
      "stateMutability": "nonpayable",
      "type": "constructor"
    },
    {
      "anonymous": false,
      "inputs": [
        {
          "indexed": true,
          "internalType": "address",
          "name": "owner",
          "type": "address"
        },
        {
          "indexed": true,
          "internalType": "bytes32",
          "name": "claimId",
          "type": "bytes32"
        }
      ],
      "name": "ClaimRemoved",
      "type": "event"
    },
    {
      "anonymous": false,
      "inputs": [
        {
          "indexed": true,
          "internalType": "address",
          "name": "owner",
          "type": "address"
        },
        {
          "indexed": true,
          "internalType": "bytes32",
          "name": "claimId",
          "type": "bytes32"
        },
        {
          "indexed": false,
          "internalType": "bytes32",
          "name": "claimHash",
          "type": "bytes32"
        }
      ],
      "name": "ClaimSet",
      "type": "event"
    },
    {
      "anonymous": false,
      "inputs": [
        {
          "indexed": true,
          "internalType": "address",
          "name": "owner",
          "type": "address"
        },
        {
          "indexed": false,
          "internalType": "string",
          "name": "cid",
          "type": "string"
        }
      ],
      "name": "IdentityRegistered",
      "type": "event"
    },
    {
      "anonymous": false,
      "inputs": [
        {
          "indexed": true,
          "internalType": "address",
          "name": "owner",
          "type": "address"
        },
        {
          "indexed": false,
          "internalType": "string",
          "name": "cid",
          "type": "string"
        }
      ],
      "name": "ProfileSet",
      "type": "event"
    },
    {
      "inputs": [
        {
          "internalType": "address",
          "name": "owner",
          "type": "address"
        },
        {
          "internalType": "bytes32",
          "name": "claimId",
          "type": "bytes32"
        }
      ],
      "name": "getClaim",
      "outputs": [
        {
          "internalType": "bytes32",
          "name": "",
          "type": "bytes32"
        }
      ],
      "stateMutability": "view",
      "type": "function"
    },
    {
      "inputs": [
        {
          "internalType": "address",
          "name": "owner",
          "type": "address"
        }
      ],
      "name": "getProfileCID",
      "outputs": [
        {
          "internalType": "string",
          "name": "",
          "type": "string"
        }
      ],
      "stateMutability": "view",
      "type": "function"
    },
    {
      "inputs": [
        {
          "internalType": "address",
          "name": "owner",
          "type": "address"
        }
      ],
      "name": "hasProfile",
      "outputs": [
        {
          "internalType": "bool",
          "name": "",
          "type": "bool"
        }
      ],
      "stateMutability": "view",
      "type": "function"
    },
    {
      "inputs": [
        {
          "internalType": "address",
          "name": "forwarder",
          "type": "address"
        }
      ],
      "name": "isTrustedForwarder",
      "outputs": [
        {
          "internalType": "bool",
          "name": "",
          "type": "bool"
        }
      ],
      "stateMutability": "view",
      "type": "function"
    },
    {
      "inputs": [
        {
          "internalType": "string",
          "name": "cid",
          "type": "string"
        }
      ],
      "name": "registerIdentity",
      "outputs": [],
      "stateMutability": "nonpayable",
      "type": "function"
    },
    {
      "inputs": [
        {
          "internalType": "address",
          "name": "owner",
          "type": "address"
        },
        {
          "internalType": "bytes32",
          "name": "claimId",
          "type": "bytes32"
        }
      ],
      "name": "removeClaim",
      "outputs": [],
      "stateMutability": "nonpayable",
      "type": "function"
    },
    {
      "inputs": [
        {
          "internalType": "address",
          "name": "owner",
          "type": "address"
        },
        {
          "internalType": "bytes32",
          "name": "claimId",
          "type": "bytes32"
        },
        {
          "internalType": "bytes32",
          "name": "claimHash",
          "type": "bytes32"
        }
      ],
      "name": "setClaim",
      "outputs": [],
      "stateMutability": "nonpayable",
      "type": "function"
    },
    {
      "inputs": [
        {
          "internalType": "address",
          "name": "owner",
          "type": "address"
        },
        {
          "internalType": "string",
          "name": "cid",
          "type": "string"
        }
      ],
      "name": "setProfileCID",
      "outputs": [],
      "stateMutability": "nonpayable",
      "type": "function"
    },
    {
      "inputs": [],
      "name": "trustedForwarder",
      "outputs": [
        {
          "internalType": "address",
          "name": "",
          "type": "address"
        }
      ],
      "stateMutability": "view",
      "type": "function"
    },
    {
      "inputs": [],
      "name": "versionRecipient",
      "outputs": [
        {
          "internalType": "string",
          "name": "",
          "type": "string"
        }
      ],
      "stateMutability": "view",
      "type": "function"
    },
    {
      "stateMutability": "payable",
      "type": "receive"
    }
  ],
  "bytecode": "0x60c060405260056080908152640322e322e360dc1b60a05260019061002490826100e8565b5034801561003157600080fd5b50600080546001600160a01b031916301790556101a7565b634e487b7160e01b600052604160045260246000fd5b600181811c9082168061007357607f821691505b60208210810361009357634e487b7160e01b600052602260045260246000fd5b50919050565b601f8211156100e357600081815260208120601f850160051c810160208610156100c05750805b601f850160051c820191505b818110156100df578281556001016100cc565b5050505b505050565b81516001600160401b0381111561010157610101610049565b6101158161010f845461005f565b84610099565b602080601f83116001811461014a57600084156101325750858301515b600019600386901b1c1916600185901b1785556100df565b600085815260208120601f198616915b828110156101795788860151825594840194600190910190840161015a565b50858210156101975787850151600019600388901b60f8161c191681555b5050505050600190811b01905550565b610a3b806101b66000396000f3fe6080604052600436106100955760003560e01c806392849ca41161005957806392849ca4146101a25780639918925d146101c2578063a1c8ca7e146101e2578063a787c80b14610202578063de8b05be1461022257600080fd5b80634361443f146100a157806346a59e5f146100f7578063486ff0cd14610119578063572b6c051461013b5780637da0a8771461017a57600080fd5b3661009c57005b600080fd5b3480156100ad57600080fd5b506100e46100bc36600461069c565b6001600160a01b03919091166000908152600360209081526040808320938352929052205490565b6040519081526020015b60405180910390f35b34801561010357600080fd5b5061011761011236600461070f565b610242565b005b34801561012557600080fd5b5061012e6102f1565b6040516100ee9190610762565b34801561014757600080fd5b5061016a6101563660046107b0565b6000546001600160a01b0391821691161490565b60405190151581526020016100ee565b34801561018657600080fd5b506000546040516001600160a01b0390911681526020016100ee565b3480156101ae57600080fd5b506101176101bd3660046107d2565b61037f565b3480156101ce57600080fd5b506101176101dd366004610814565b61044b565b3480156101ee57600080fd5b506101176101fd36600461069c565b6104e4565b34801561020e57600080fd5b5061016a61021d3660046107b0565b610570565b34801561022e57600080fd5b5061012e61023d3660046107b0565b6105a0565b82806001600160a01b031661025561064c565b6001600160a01b0316146102845760405162461bcd60e51b815260040161027b90610847565b60405180910390fd5b6001600160a01b03841660009081526002602052604090206102a7838583610915565b50836001600160a01b03167f56d78f91013a9df87c3059830b445edb071285effe6a7fe07fe1b235b9ae0fc384846040516102e39291906109d6565b60405180910390a250505050565b600180546102fe9061088c565b80601f016020809104026020016040519081016040528092919081815260200182805461032a9061088c565b80156103775780601f1061034c57610100808354040283529160200191610377565b820191906000526020600020905b81548152906001019060200180831161035a57829003601f168201915b505050505081565b81816002600061038d61064c565b6001600160a01b031681526020810191909152604001600020916103b2919083610915565b506103bb61064c565b6001600160a01b03167f56d78f91013a9df87c3059830b445edb071285effe6a7fe07fe1b235b9ae0fc383836040516103f59291906109d6565b60405180910390a261040561064c565b6001600160a01b03167f9b6805eb7a1bee8a797c79c5f2a39a182f3d37f8b8cce5ec42371000c8115dfd838360405161043f9291906109d6565b60405180910390a25050565b82806001600160a01b031661045e61064c565b6001600160a01b0316146104845760405162461bcd60e51b815260040161027b90610847565b6001600160a01b038416600081815260036020908152604080832087845282529182902085905590518481528592917f32e23ce2e82f46f421b8ffb2c7c2e2fa3db44ade2ac5f6796f52db108a887c5b910160405180910390a350505050565b81806001600160a01b03166104f761064c565b6001600160a01b03161461051d5760405162461bcd60e51b815260040161027b90610847565b6001600160a01b0383166000818152600360209081526040808320868452909152808220829055518492917f82ab91eafd2c6fb1627340b0d19493f5e5df4d920fbaaf6ac40124783af8bfd491a3505050565b6001600160a01b038116600090815260026020526040812080548291906105969061088c565b9050119050919050565b6001600160a01b03811660009081526002602052604090208054606091906105c79061088c565b80601f01602080910402602001604051908101604052809291908181526020018280546105f39061088c565b80156106405780601f1061061557610100808354040283529160200191610640565b820191906000526020600020905b81548152906001019060200180831161062357829003601f168201915b50505050509050919050565b60006014361080159061066957506000546001600160a01b031633145b1561067b575060131936013560601c90565b503390565b80356001600160a01b038116811461069757600080fd5b919050565b600080604083850312156106af57600080fd5b6106b883610680565b946020939093013593505050565b60008083601f8401126106d857600080fd5b50813567ffffffffffffffff8111156106f057600080fd5b60208301915083602082850101111561070857600080fd5b9250929050565b60008060006040848603121561072457600080fd5b61072d84610680565b9250602084013567ffffffffffffffff81111561074957600080fd5b610755868287016106c6565b9497909650939450505050565b600060208083528351808285015260005b8181101561078f57858101830151858201604001528201610773565b506000604082860101526040601f19601f8301168501019250505092915050565b6000602082840312156107c257600080fd5b6107cb82610680565b9392505050565b600080602083850312156107e557600080fd5b823567ffffffffffffffff8111156107fc57600080fd5b610808858286016106c6565b90969095509350505050565b60008060006060848603121561082957600080fd5b61083284610680565b95602085013595506040909401359392505050565b6020808252601590820152742737ba103a343290383937b334b6329037bbb732b960591b604082015260600190565b634e487b7160e01b600052604160045260246000fd5b600181811c908216806108a057607f821691505b6020821081036108c057634e487b7160e01b600052602260045260246000fd5b50919050565b601f82111561091057600081815260208120601f850160051c810160208610156108ed5750805b601f850160051c820191505b8181101561090c578281556001016108f9565b5050505b505050565b67ffffffffffffffff83111561092d5761092d610876565b6109418361093b835461088c565b836108c6565b6000601f841160018114610975576000851561095d5750838201355b600019600387901b1c1916600186901b1783556109cf565b600083815260209020601f19861690835b828110156109a65786850135825560209485019460019092019101610986565b50868210156109c35760001960f88860031b161c19848701351681555b505060018560011b0183555b5050505050565b60208152816020820152818360408301376000818301604090810191909152601f909201601f1916010191905056fea2646970667358221220b0e5dffcaaf38ca16f0d59340e3612e52a2534806959f934f8980558f8d627e564736f6c63430008140033",
  "linkReferences": {},
  "deployedLinkReferences": {}
}